:100000000C945D010C94A4010C94A4010C94A40123
:100010000C94A4010C94A4010C94A4010C94A401CC
:100020000C94A4010C94A4010C94C81C0C949A1D6B
:100030000C94F4170C94A4010C94A4010C94A40146
:100040000C94A4010C94A4010C94A4010C94A4019C
:100050000C94A4010C944D180C94A4010C94A401CC
:100060000C94A4010C94A4010C94A4010C94A4017C
:100070000C94A4010C94A4010C94A4010C94A4016C
:100080000C94A4010C94A4010C94A4010C94A4015C
:100090000C94A4010C94A4010C94A4010C94A4014C
:1000A0000C94A4010C94A4010C94A4012E0D2E0D0B
:1000B000600D600DAD0DCB0DEC0EEC0ED60D6B0E84
:1000C0007C0E7C0EDC0EEC0EEC0EE50E8C0F8C0F15
:1000D0009E0F9E0F950F9E0F9E0F9E0F8C0F8C0FE5
:1000E0009A0F9E0F9E0F9A0F071E2E1E261F2E1E62
:1000F000261F7A1E9D1E261FF41E031F680069001E
:100100006A006B0072416C006D006E006F007342FC
:10011000A800AA00A90070000000AC00AE00AB006F
:100120007100005C2B0407011D011C0100001B0174
:100130000601190109010000220353007400720036
:10014000650061006D0020004300680065006100EB
:1001500070002000320078003500000014034B00CE
:1001600079006C0065002000480061007200740096
:1001700000000403090409023B00020100A0FA097F
:1001800004000001030101000921110100012240C6
:10019000000705810308000A0904010001030000AB
:1001A0000009211101000122B60007058203200089
:1001B0000A1201100100000008EDFE1512010001F5
:1001C00002000105010902A10185020901A1000542
:1001D00009190129081500250195087501810205F5
:1001E00001093009311581257F95027508810609BD
:1001F000381581257F950175088106050C0A38029E
:100200001581257F950175088106C0C0050109800B
:10021000A101850319012AB700150126B700950130
:1002200075108100C0050C0901A101850419012A7E
:10023000A002150126A002950175108100C00501DC
:100240000906A1018505050719E029E71500250123
:100250009508750181020507190029EF1500250190
:1002600095F07501810205081901290595057501AB
:100270009102950175039101C005010906A10105CF
:100280000719E029E71500250195087501810295F8
:1002900001750881010507190029FF150026FF00D7
:1002A0009506750881000508190129059505750150
:1002B0009102950175039101C00011241FBECFEF7B
:1002C000DAE0DEBFCDBF04B603FE27C08091540242
:1002D00090915502A0915602B09157028730904BF1
:1002E000A740B04BD1F410925402109255021092D4
:1002F00056021092570214BE84B7877F84BF0FB690
:10030000F894A895809160008861809360001092B5
:1003100060000FBEE0E0F8E3099511E0A0E0B1E075
:10032000E8E9FFE302C005900D92A238B107D9F7C2
:1003300022E0A2E8B1E001C01D92A435B207E1F7C6
:100340000E94021A0C94CA1F0C94000081E00895C8
:1003500081E008950C94A80108950C94AC011F93BA
:10036000CF93DF9300D000D01F92CDB7DEB7498383
:100370005A836B833091A90189819A81311114C00C
:10038000662359F0222349F00E94C714182F682FC2
:1003900089819A810E946E1403C00E949A14182FBA
:1003A00069817A81812F04C00E94C71469817A8192
:1003B0000F900F900F900F900F90DF91CF911F91A2
:1003C0000C947202FC01262F40815181628173815D
:1003D00084810C94AF01CF93DF93EC0160E00E9425
:1003E000E201BE01DF91CF910C94AD010E94940413
:1003F0000C94C6040C94C20408950E947A0F0E94C3
:10040000FC012FEF84E39CE0215080409040E1F715
:1004100000C000000C9473180F931F93CF93DF93C9
:100420008C0161E00E94E201EC01B8010E94AA0186
:100430008823F1F1B801CE010E9491088823C1F10F
:10044000B801CE010E94E308882391F1B801CE01E2
:100450000E940E0A882361F1F8018281882309F144
:10046000CB358DE5D807C1F050F4C115FCE5DF07A9
:1004700081F0CF3DDC45A9F40E94D81619C0CC35D7
:10048000EDE5DE0761F0CD35DD4559F40E945A15E2
:1004900008C00E94FD010CC00E94631502C00E94AA
:1004A0006615C801DF91CF911F910F910C94A601A1
:1004B00080E0DF91CF911F910F91089508950C94E2
:1004C0005E0281E008950C946102CF93C82F0E94D0
:1004D0005F028C2F0E946302CF91089580E090E02C
:1004E000089508952AE0829FC0011124FC0125E0AF
:1004F000729FE00DF11D1124E60FF11DEE0FFF1F9D
:10050000E450FF4F859194910895880F991FFC0145
:10051000E85CFE4F859194910895CF93DF930E94FC
:1005200072020E94A503EC018115904508F041C0BC
:10053000C11580E4D80708F0D1C0C83ED10510F538
:10054000C03ED10508F0FDC0C83AD10578F4C53ADF
:10055000D10508F0A2C0C130D10509F4F2C008F4F9
:10056000EEC0C430D10508F0ECC0E9C0CF3BD105E6
:1005700008F49BC0C03CD10508F4E1C0CE01805C0A
:1005800091099EC0C11590E2D90758F4C11521E028
:10059000D20708F0D6C0CD3ED10508F4D0C0D06552
:1005A000D0C0C11580E3D80708F08EC0CE019F707F
:1005B00087C0C11595E5D90708F043C0C11524E5EA
:1005C000D20708F0A2C0C11582E5D80708F5C11509
:1005D00091E5D90708F085C0CE0174E0969587951E
:1005E0007A95E1F783709C2F937021E030E002C090
:1005F000220F331F9A95E2F73C68382BCF70C695CF
:10060000C69580E2C89FE0011124C22BD32B99C06C
:100610009E01237033278C2F86958695C115D3456F
:1006200008F064C0C1E0D0E002C0CC0FDD1F2A9505
:10063000E2F720E2829FC0011124C82BD92BDC688D
:1006400080C0C11529E5D207A0F4C11588E5D807F7
:1006500008F060C0C11596E5D90708F070C08C2F6E
:100660000E9439048F71C82FD0E0DC2FCC27D062D4
:1006700068C0C1152AE5D20708F451C0CE019056D2
:100680008115904208F05BC08D2F8F710E94390454
:10069000DD27D0628F71D82B54C0C55AD0E0CD5B16
:1006A000DE4FC881D0E0D0644CC0C85AD0E0CC0F37
:1006B000DD1FCB5EDE4F0990D881C02DD46441C0D0
:1006C0000E948502EC013DC0CE019927D3FF03C0F3
:1006D000EC01D86C36C0EC01D06C33C0DF70D06A4E
:1006E00030C0DC2FCC27C16FD06A2BC0C1E0D0E076
:1006F00002C0CC0FDD1F2A95E2F720E2829FC001E5
:100700001124C82BD92BDA681CC0DC2FCC27C46F6E
:10071000D06A17C0DC2FCC27C06FD06A12C08C2FD4
:100720008F700E94390494E0D695C7959A95E1F7A9
:10073000CF70D0E0DC2FCC27D069C82B02C0C0E03E
:10074000D0E0CE01DF91CF9108958238910569F113
:10075000B0F48133910509F46DC048F489329105F4
:1007600009F463C08A32910509F469C0089585339C
:10077000910509F455C089339105B9F00895833E78
:10078000910569F138F4803E9105B1F0823E910502
:1007900009F10895863E9105A9F1873E9105B9F1C9
:1007A000843E910509F064C023C020913D0220FDE4
:1007B0004FC021FD4DC0089580913D0280FD44C091
:1007C00080913E0280FF44C080913D0284FD42C082
:1007D00083EE4DC080913D0282FF38C0F5CF8091FD
:1007E0003D0282FD33C080913E0280FD31C0ECCFDE
:1007F00080913E0281FF32C080913D0284FD2AC07B
:1008000087EE35C080913D0283FF26C0F5CF8091F1
:100810003D0283FD21C080913E0281FD1FC0ECCFCF
:1008200080913D0285FD1CC01DC080913D0285FD6B
:1008300019C016C080913D0286FD16C017C0809178
:100840003D0286FD13C010C089E311C082EE0FC0C7
:1008500080EE0DC080E00BC086EE09C084EE07C0BC
:1008600089E205C085E303C08AE201C081E390E02C
:10087000089590913D0292FF0DC0282F28712830D5
:1008800019F4877F846006C0282F2471243011F466
:100890008B7F886093FF0DC0282F2871283119F4B1
:1008A000877E846106C0282F2471243111F48B7E49
:1008B000886120913E0220FF0DC0382F38713830FA
:1008C00019F4877F816006C0382F3171313011F4FF
:1008D0008E7F886021FF0DC0282F2871283119F4E0
:1008E000877E816106C0282F2171213111F48E7E0F
:1008F000886194FD877E08950C942A160E94040551
:100900008FE39CE90197F1F700C000000E94040505
:1009100080E00E94B80480FF04C00E947C040C9414
:10092000731808950C947E040E943016811102C041
:100930000E94D8160E943B16809319020E9443160B
:1009400090933E0280933D020E9492040E943F16C3
:10095000682F70E080E090E00E9470136091EC01DD
:100960007091ED018091EE019091EF010C94A8132C
:10097000E82FF0E0EF5BFD4F808108950895089522
:100980000C94BF040C94C0040C94BF040C94C404D5
:10099000CF93DF9346E451E0A1E0B0E020E030E007
:1009A000FA01E20FF31F80818F3FA1F0E82FE2955B
:1009B000EF70F0E061A18F70ED0102C0CC0FDD1F80
:1009C0008A95E2F7CE019C2F9095962391A392A150
:1009D000892B82A32F5F3F4F2530310509F74B5FED
:1009E0005F4FD1E040355D07C9F610923F0210928B
:1009F0004102109240021092420282E00E9454058D
:100A0000DF91CF910C94F6010F931F93CF93DF9357
:100A1000EFE3F2E066E471E0C0E001E010E080E0C6
:100A200090E050E0DB01A80FB91F4C914F3FC9F097
:100A3000A42FA295AF70B0E090962C9130E04F704B
:100A400002C0359527954A95E2F720FD07C0980129
:100A5000082E01C0220F0A94EAF702C020E030E01D
:100A6000522B019685309105E9F68081851719F0A2
:100A7000508381E001C080E0C82B31966B5F7F4FCF
:100A800081E06035780759F62C2F42E061E472E08E
:100A90008FE392E00E9455050E94FA018C2FDF91AE
:100AA000CF911F910F9108950895FF920F931F9377
:100AB000CF93DF938C01F62ED72FC42F222349F03A
:100AC00081E0809386010E9426189093850180938F
:100AD0008401809186018823C1F0809184019091E6
:100AE00085010E943E18069780F0EF2DFD2FD8015A
:100AF0004C2F50E0CD01801B910B841795071CF4FF
:100B00008D918193F7CF10928601DF91CF911F9144
:100B10000F91FF90089580918D0180FF0BC060912F
:100B2000050185E0689FB00111247595679575955D
:100B300067952BC081FF09C06091050185E0689F22
:100B4000B00111247595679520C082FF07C06091A0
:100B5000050185E0689FB001112417C090918C01B8
:100B60009923D1F060910401961788F7209105012F
:100B700085E0289F90011124929FA001939F500D22
:100B8000112470E0CA010E945A1F6038710540F4B8
:100B90006115710519F406C065E070E0862F0895AF
:100BA0008FE7089581E0089580918D0180FF08C04E
:100BB0006091010170E0759567957595679521C005
:100BC00081FF06C06091010170E07595679519C0BD
:100BD00082FF04C06091010170E010C090918B0110
:100BE000992399F0609100019617A0F78091010177
:100BF000899FC001112470E00E945A1F603871055E
:100C000040F46115710519F406C061E070E0862FAB
:100C100008958FE7089581E008958D3E21F40E94A4
:100C20008B05819504C08E3E29F40E948B0580932C
:100C3000910108958F3E21F40E948B05819504C097
:100C4000803F29F40E948B05809390010895893F8D
:100C500019F40E94D40505C08A3F31F40E94D405DE
:100C600081958093920108958B3F21F40E94D405D1
:100C7000819504C08C3F29F40E94D4058093930190
:100C800008959FE0980F983078F421E030E0A901B2
:100C900002C0440F551F9A95E2F7CA0190918F0147
:100CA000892B80938F0108958D3F21F480918D01D0
:100CB00081600BC08E3F21F480918D01826005C060
:100CC0008F3F29F480918D01846080938D01089578
:100CD0008D3E39F49091910197FF35C010929101AA
:100CE00059C08E3E29F4909191011916BCF32BC086
:100CF000909190018F3E29F497FF25C010929001AA
:100D000049C0803F19F41916CCF31DC0909192018F
:100D1000893F29F41916BCF4109292013BC08A3F16
:100D200019F497FF10C0F8CF8B3F39F490919301DD
:100D300097FF09C0109293012DC08C3F21F4909130
:100D400093011916BCF39FE0980F983080F421E0CE
:100D500030E0A90102C0440F551F9A95E2F7CA017D
:100D6000809590918F01892380938F0113C08D3FCF
:100D700021F480918D018E7F0BC08E3F21F48091F4
:100D80008D018D7F05C08F3F29F480918D018B7F70
:100D900080938D0180919001811106C08091910115
:100DA000811102C010928C0180919201811106C0C4
:100DB00080919301811102C010928B0108950E94CD
:100DC000261820919001211104C020919101222325
:100DD00021F090938A018093890120919201211141
:100DE00004C020919301222321F0909388018093E5
:100DF00087018EE891E00C946A0AEF92FF920F93BC
:100E00001F93CF93DF9300D000D000D0CDB7DEB7D3
:100E100086E0EEE8F1E0DE01119601900D928A95F0
:100E2000E1F7E0909001F090910100919201109112
:100E300093011092900110929101109292011092E0
:100E40009301E11003C0FF2009F45DC08091890186
:100E500090918A010E943E18AC0190918C019923D7
:100E600039F02091060130E02417350758F04BC0C7
:100E7000209107018AE0289F90011124241735074B
:100E800018F041C09F3F19F09F5F90938C01EE20B6
:100E900061F00E948B051E1414F09FEF01C091E0D9
:100EA000989F902D112490939001FF2061F00E9453
:100EB0008B051F1414F09FEF01C091E0989F902DB7
:100EC000112490939101309190013323E1F020910E
:100ED00091012223C1F045EB3403C0011124992371
:100EE00019F09093900103C081E08093900135EB5D
:100EF0002303C0011124992319F09093910103C099
:100F000081E080939101011103C0112309F45DC0B8
:100F100080918701909188010E943E18AC019091C8
:100F20008B01992339F02091020130E02417350715
:100F300058F04BC0209103018AE0289F90011124B2
:100F40002417350718F041C09F3F19F09F5F909319
:100F50008B01002361F00E94D405101614F09FEF5E
:100F600001C091E0989F902D11249093920111233C
:100F700061F00E94D405111614F09FEF01C091E0BA
:100F8000989F902D112490939301309192013323D7
:100F9000E1F0209193012223C1F045EB3403C0011D
:100FA0001124992319F09093920103C081E080935A
:100FB000920135EB2303C0011124992319F090937A
:100FC000930103C081E0809393018091900181118E
:100FD0000BC080919101811107C080919201811114
:100FE00003C08091930181110E94DF06EB82FC8295
:100FF0000D831E8386E0FE013196AEE8B1E00190DC
:101000000D928A95E1F726960FB6F894DEBF0FBED3
:10101000CDBFDF91CF911F910F91FF90EF90089579
:10102000EEE8F1E086E0DF011D928A95E9F7109283
:101030008C0110928B0110928D0108950F931F93D4
:10104000CF93DF93C42FD22FFC0182818823C9F074
:10105000409396010E9426189093950180939401E5
:1010600080E28C0F883008F057C0C77081E001C063
:10107000880FCA95EAF7DF91CF911F910F910C94D9
:10108000ED0C80919601481330C0809194019091AD
:1010900095010E943E18883C910538F510E21D0F1D
:1010A000CD17B9F080E28C0F883040F4C77081E032
:1010B00001C0880FCA95EAF70E94F40C183028F591
:1010C00081E09D2F977001C0880F9A95EAF70E94E2
:1010D000ED0C802F0E94E40C1830F0F4D77081E002
:1010E00001C0880FDA95EAF70AC080E28C0F8830D9
:1010F00098F4C77081E001C0880FCA95EAF7DF91C4
:10110000CF911F910F910C94F40C802FDF91CF9110
:101110001F910F910C94E40CDF91CF911F910F91CF
:1011200008950F939C01CB01243F4CE5340731F126
:1011300088F4293DFCE53F07D9F02A3D4CE534070A
:1011400079F1283D3C45A9F506E221EE41EE68ED36
:101150007CE52BC0263FFCE53F07E1F0A8F0273FE8
:101160003C4539F507E225EE46EE67EF7CE51DC00C
:1011700007E225EE45EE69ED7CE517C006E221EEBB
:1011800040EE64EF7CE511C007E225EE44EE65EF2A
:101190007CE50BC006E221EE42EE66EF7CE505C081
:1011A00008E221E045EE6AED7CE50E941E0880E041
:1011B00008C0FC018281882319F01092960101C0B9
:1011C00081E00F910895CF93DF93EC01FB018281C1
:1011D000882309F41FC1C230FCE5DF0708F41BC1F6
:1011E000C6319CE5D90738F09E012B5F3C4529307C
:1011F000310508F010C10E94431690933E0280937F
:101200003D02C031ECE5DE0709F4C3C008F041C07F
:10121000C8308CE5D80709F49AC0F0F4C430ECE586
:10122000DE0709F487C068F4C2308CE5D80709F4FA
:1012300077C0C330DC4509F0E3C080913D02826095
:1012400076C0C630ECE5DE0709F46EC008F07BC05E
:1012500080913D0288606BC0CC308CE5D80709F4E2
:1012600085C068F4CA30ECE5DE0709F474C008F004
:1012700079C00E947A0F80913D02806858C0CE30BC
:101280008CE5D80709F476C008F07FC080913D0254
:101290008BC0CC3FECE5DE0709F44FC018F5C33135
:1012A0008CE5D80709F47DC078F4C131ECE5DE07A0
:1012B00009F473C0C231DC4509F0A2C00E947A0F64
:1012C00080913D028F7733C0C5318CE5D80709F492
:1012D00072C008F486C0CB3FDC4509F091C0809114
:1012E0003E023EC0C115FDE5DF0709F45FC058F4BA
:1012F000CE3F9CE5D90709F444C008F43FC0809173
:101300003E0282602DC0C230FDE5DF0709F475C0E2
:1013100008F45DC0C330DD4509F072C080E06EC0E6
:1013200080913D02816003C080913D028061809385
:101330003D0266C080913D0211C080913E028260F4
:1013400080933E025DC080913D028062F0CF80912B
:101350003D028064ECCF80913D0288608460E7CFDD
:101360008160EECF80913D028E7FE1CF80913D0282
:101370008D7FDDCF80913D02877FD9CF80913E0266
:1013800018C080913E028D7FDBCF80913D028F7E21
:10139000CECF80913D028F7DCACF80913D028F7B61
:1013A000C6CF80913D02877F8B7FC1CF80913E0267
:1013B0008D7F8E7FC5CF80913D0282FB222720F951
:1013C00091E0922790FB82F990FB83F9B0CF809156
:1013D0003E02982F909591708E7F892B90FB81F91A
:1013E000AFCF0E947A0F80913D0287FB222720F920
:1013F00091E0922790FB87F99ACF81E00E94DA165C
:1014000080913D0290913E020E9454160E947A0FF4
:1014100080E001C081E0DF91CF910895CF93DF9309
:1014200086319C4541F5EB010E946915982F8A8110
:101430002091080130910901882379F09A7A81E09E
:1014400009F480E080939701911102C069E201C024
:1014500065E3C9010E9475170AC080919701811147
:1014600002C069E201C065E3C9010E9480170E94C1
:10147000BB1580E001C081E0DF91CF91089590938A
:101480009D0180939C010895E0919C01F0919D0144
:10149000309721F00190F081E02D099480E00895CB
:1014A000E0919C01F0919D01309799F020911401F9
:1014B000222359F020913D0227FF07C0DC012C9127
:1014C00011962C93119725E02C930280F381E02D47
:1014D00009940895E0919C01F0919D01309739F0B5
:1014E00022E0DC012C930480F581E02D099408951D
:1014F00020919A0130919B012817390771F0909340
:101500009B0180939A01E0919C01F0919D0130979D
:1015100021F00680F781E02D09940895209198012B
:10152000309199012817390771F0909399018093B0
:101530009801E0919C01F0919D01309721F0008489
:10154000F185E02D099408950E9432186093A50159
:101550007093A6018093A7019093A8016093A101C5
:101560007093A2018093A3019093A401089585B77D
:10157000806885BF85B7806885BF089581E008953C
:101580000C94BE0A08950C94C20A0C94C20A0C94DE
:10159000C50A0C94C20A0C94C90A0C94C20A0E948F
:1015A000B70A88E296E10E9484180E94CD0A0C9442
:1015B000CB0A0E94C30A0C94C20A0E941D180E9402
:1015C000C8040C94C70A9F92AF92BF92CF92DF9249
:1015D000EF92FF920F931F93CF93DF93CDB7DEB7B8
:1015E0002A970FB6F894DEBF0FBECDBF0E94040548
:1015F00081110E94A40A8FE9A82E81E0B82E00E094
:1016000010E0902E802F0E94B804D82EF501C190D2
:101610005F01C826B1F40F5F1F4F0230110589F733
:101620008FEF89838A831B820E9426188160782F1E
:101630009D838C8349815A816B818D810E94810BAE
:101640002FC08091190281FD0E94BE04E12CFF246D
:10165000F3948C2D8F21F1F00E94C00A882399F019
:10166000EE829F82DF2081E009F480E088870E947B
:1016700026188160782F9A8789874E815F816885D7
:101680008A850E94810BF801E156FE4F8081F82681
:10169000F08206C0E394FF0CF5E0EF12DACFBBCF87
:1016A0000E94FD060E94440A90919E018917B9F09C
:1016B0000E94440A80939E012A960FB6F894DEBFDA
:1016C0000FBECDBFDF91CF911F910F91FF90EF9093
:1016D000DF90CF90BF90AF909F900C9465022A96B8
:1016E0000FB6F894DEBF0FBECDBFDF91CF911F9133
:1016F0000F91FF90EF90DF90CF90BF90AF909F90B1
:101700000895DF92EF92FF920F931F93CF93DF9391
:10171000CDB7DEB72B970FB6F894DEBF0FBECDBFA7
:10172000F42E052F162FE72ED82E61110E94891551
:10173000FE01319686E0DF011D928A95E9F77E2D44
:101740004F2D502F612F8D2D9E810E9433122B968D
:101750000FB6F894DEBF0FBECDBFDF91CF911F91C2
:101760000F91FF90EF90DF900895FC0180819181AF
:101770000E9409150895CF93882309F4A4C0C82FA7
:101780008238C1F40E94440A81FD9DC069E38091C2
:101790000801909109010E9475170E94BB152FEF57
:1017A00081EE94E0215080409040E1F700C00000BD
:1017B00069E319C0833801F50E94440A80FD83C0A3
:1017C00063E580910801909109010E9475170E94BC
:1017D000BB152FEF81EE94E0215080409040E1F75F
:1017E00000C0000063E580910801909109010E940A
:1017F0008017CF910C94BB158438C1F40E94440A21
:1018000082FD61C067E480910801909109010E9406
:1018100075170E94BB152FEF81EE94E02150804098
:101820009040E1F700C0000067E4DDCF8CEF8C0F43
:10183000813AD0F46C2F80910801909109010E94A7
:10184000F516882349F06C2F8091080190910901C9
:101850000E9480170E94BB156C2F80910801909107
:1018600009010E947517C5CF80E28C0F883048F4BB
:10187000C77081E001C0880FCA95EAF70E946C1515
:10188000B8CFEBE5EC0FE33040F4F0E0E258FE4F68
:10189000808190E0CF910C94780AE8E5EC0FE73175
:1018A00050F4F0E0EE0FFF1FE05BFE4F808191816E
:1018B000CF910C948E0ACD3E30F08C2F0E940D06F5
:1018C000CF910C94DF06CF910895882309F464C06A
:1018D000823879F40E94440A81FF5EC069E38091F6
:1018E0000801909109010E9475170E94BB1569E3D8
:1018F00010C08338B1F40E94440A80FF4DC063E5F4
:1019000080910801909109010E9475170E94BB15F2
:1019100063E580910801909109010E9480170C9461
:10192000BB15843879F40E94440A82FF35C067E40D
:1019300080910801909109010E9475170E94BB15C2
:1019400067E4E7CF9CEF980F913A10F4682FE1CF4E
:1019500090E2980F983050F4877091E001C0990F91
:101960008A95EAF7892F0E947215D9CF9BE5980FC7
:10197000933020F480E090E00C94780A98E5980F7A
:10198000973120F480E090E00C948E0A8D3E20F098
:101990000E9468060C94DF0608951F93CF93DF938F
:1019A000182FEB010E94BB0B209741F08FE99FE0BD
:1019B0000197F1F700C000002197F6CF812FDF914A
:1019C000CF911F910C94650C893319F060E070E0A1
:1019D00002C060E570E00C94CD0C882321F00E94D9
:1019E0006C150C94BB150895882321F00E94721584
:1019F0000C94BB150895CF92DF92EF92FF920F9354
:101A00001F93CF93DF937C01062FC72FFC01D28158
:101A1000158112951F700E944115882399F0DD23CE
:101A200089F08C2F807F803421F080E2800F883015
:101A300048F082E00E940B160E94411591E0D82EDA
:101A4000D92601C0D12CCC2EC2948FE0C8228C2D77
:101A500090E0FC01EA5AFF4F0C946E1F8C2F807FA0
:101A6000CF70882311F0C295C07FDD2399F0CC237D
:101A700009F48DC180E2800F883010F0011104C09C
:101A80008C2F0E946C1503C08C2F0E947C150E9425
:101A9000BB157DC1802F0E94650CCC2309F49CC12D
:101AA00080E2800F883010F0011104C08C2F0E945A
:101AB000721503C08C2F0E9482150E94BB158CC129
:101AC0008C2F807FCF70803211F0C295C07F0023B1
:101AD00019F00130C9F022C0DD2371F0112341F06B
:101AE000113031F40E949C158C2B0E94A41574C1F6
:101AF0000E949C158C2B1DC0112319F0113009F484
:101B00006BC10E94B11525C0DD2321F0163008F00D
:101B100063C10EC0153008F05FC11BC0DD2361F04A
:101B2000112331F0F701858180FF31C18F708583EA
:101B30008C2F0E94ED0C50C1112359F0093309F08C
:101B400037C1FFEF27EE83E0F15020408040E1F7FE
:101B50002DC18C2F0E94F40C3FC18C2F8695869549
:101B6000837019F0813061F037C1DD2321F0802FBF
:101B70009C2F937002C080E090E00E94780A34C1EC
:101B8000DD2321F0802F9C2F937002C080E090E035
:101B90000E948E0A29C1802FDD2319F00E940D06B4
:101BA00002C00E9468060E94DF061EC18C2F83704F
:101BB00009F045C0D11114C1402F42954695477098
:101BC000440F440F602F6F70862F90E0A0E0B0E0CC
:101BD000042E04C0880F991FAA1FBB1F0A94D2F7B6
:101BE00004FF10C00FE010E020E030E004C0000F60
:101BF000111F221F331F4A95D2F70095109520958B
:101C0000309503C000E010E09801C695C695C370FA
:101C1000BC01CD01602B712B822B932BC23049F07C
:101C200058F4C13019F00E948413DAC00E94721374
:101C3000D7C00E949613D4C00E947013D1C0DD2378
:101C400019F08C2F817001C08695882309F4C8C0D3
:101C5000402F429546954770440F440F602F6F7098
:101C6000862F90E0A0E0B0E0042E04C0880F991FFA
:101C7000AA1FBB1F0A94D2F704FF10C00FE010E0A8
:101C800020E030E004C0000F111F221F331F4A95CF
:101C9000D2F7009510952095309503C000E010E034
:101CA0009801C695C695C370BC01CD01602B712B00
:101CB000822B932BC23049F058F4C13019F00E94A6
:101CC00049148EC00E9437148BC00E945B1488C0D8
:101CD0000E94AA1385C0CF70DD2339F08C2F0E949B
:101CE000D013802F0E94ED0C7BC0802F0E94F40C3B
:101CF0008C2F0E94F11374C0023F01F128F4003FC1
:101D000041F0013FA1F03FC0033FF9F0043F39F13A
:101D10003AC0DD2341F0153008F05EC08C2F8F7182
:101D20000E94161459C0163008F056C0F7CFDD23B4
:101D300039F08C2F8F710E94D0134EC0DD23C9F370
:101D40008C2F8F710E94F11347C0DD2329F08C2F57
:101D50008F710E94BB1340C00E94B6133DC0DD23AB
:101D600049F0CF718C2F0E94D01363E08C2F0E941A
:101D7000F01532C081E00E940B16123068F182E04B
:101D80000E940B1629C0DD2331F0112391F2802F20
:101D90000E94BB0B21C0112399F2093349F49FEF34
:101DA000E7EEF3E09150E040F040E1F700C00000C2
:101DB000802F0E94650C10C04C2F4F70602FC70100
:101DC0000E946E020E94E1120FC04C2F4F70602FD4
:101DD000C7010E94710208C088EF8C0D843020F486
:101DE0000E94440A0E946502DD20C9F00E943D1550
:101DF00080FD15C0F70112820E9437150E94D01392
:101E0000C7010E94300F0E943715DF91CF911F91BB
:101E10000F91FF90EF90DF90CF900C94F113DF9132
:101E2000CF911F910F91FF90EF90DF90CF90089589
:101E30000F931F93CF93DF93EC01688179818A819F
:101E40000E9414158C010E946D140E945E13B8014B
:101E5000CE010E94FB0CDF91CF911F910F9108954D
:101E6000CF93DF93EC01988189812B813C81232BD7
:101E700031F08F3F31F481E09F3F19F403C081E0DE
:101E800001C080E080FD19C0CE010E940C028111CA
:101E90000CC00E944115882381F08A81882369F053
:101EA00082E0DF91CF910C940B16CE010E94180FA7
:101EB000CE01DF91CF910C94EB01DF91CF9108958A
:101EC00080E090E00E94780A80E090E00E948E0A14
:101ED0000E9489150E9499150E94BB150E94100846
:101EE0000C94DF0680910801909109010E948B17E4
:101EF0000C94600F0E9479150C94720FE92FE295F3
:101F0000EF704E2F50E0FA013297EE30F105B0F449
:101F1000EA59FF4F0C946E1F803F91F018F4883EF1
:101F200068F40EC0843F51F40BC0883E48F0813FF6
:101F300029F406C093FB882780F9089580E008956E
:101F400081E008950E9409150E947E0F0895CF93A5
:101F5000DF9300D000D01F92CDB7DEB70F900F9067
:101F60000F900F900F90DF91CF910895CF93DF9353
:101F700000D000D000D0CDB7DEB726960FB6F894CB
:101F8000DEBF0FBECDBFDF91CF9108951F93CF93DA
:101F9000DF93C091AA0116E08091AB01C81799F0B8
:101FA000D0E01C9FF0011D9FF00D1124E455FE4F61
:101FB0004081518162817381848195810E94B60F35
:101FC0002196C770E9CFDF91CF911F91089540917D
:101FD000DC015091DD016091DE017091DF018091A3
:101FE000E0019091E1010C94B60F0F931F93CF93F2
:101FF000DF938091E10182958F7009F05DC080913F
:10200000DE01882309F458C08091AA011091AB0128
:102010006091DC017091DD01C091DF01D091E001A0
:1020200091E06F3F09F090E0292F06E0811709F455
:1020300043C0209721F07F3F21F030E003C031E022
:1020400001C0322F90E030FD34C0089FF001099F9D
:10205000F00D1124DF01A455BE4F11963C9111974C
:10206000371327C03C91361324C012963C91129727
:1020700031111FC013964D915C9114974C1B5D0B51
:10208000483C5105B0F48091E1018F7080618093EC
:10209000E101EF54FE4F80818F70806180838CED71
:1020A00091E00E94300FDF91CF911F910F910C941E
:1020B000C60F01968770BACFDF91CF911F910F9114
:1020C00008959F92AF92BF92CF92DF92EF92FF92CC
:1020D0000F931F93CF93DF93CDB7DEB761970FB602
:1020E000F894DEBF0FBECDBF8C0185E0F801DE01A4
:1020F0001D9601900D928A95E1F7F801408151817A
:10210000E2809091DC016091DD012091DF0130914E
:10211000E0012115310531F06F3F31F481E09F3F3F
:1021200019F403C081E001C080E0F82FF1709F2E08
:1021300080FD46C1F801A380B4808CEDC82E81E0FB
:10214000D82EF090DE01F501E21BF30BFF2009F41D
:10215000DFC08091E101E83CF10508F09BC0282F29
:10216000207F09F052C0561313C0491311C0FE2C32
:10217000E1100EC08F7080618093E1010E94E70F33
:10218000C6010E94300F8091E101F801858358C19A
:10219000AB2831F05F3F31F481E04F3F19F403C0C9
:1021A00081E001C080E080FD03C081E08E2502C097
:1021B00080E090E0F82FF170FF2E80FF1CC080912E
:1021C000AA012091AB0136E0821709F417C190E013
:1021D000389FF001399FF00D1124E455FE4F6181C5
:1021E000561306C06081461303C06281E61203C025
:1021F00001968770E9CFFE2CEE2009F421C1809171
:10220000E10181608093E1015AC0561306C0491371
:1022100004C0E11002C0F8019FC04D875E878D8524
:102220009E850E94A20F882379F1EE2069F120910A
:10223000E101822F82958F7090E0029774F0809177
:10224000DC019091DD0198878F831986BB86AA8671
:102250002C87CE0107960E94300F86E0F801ACED86
:10226000B1E001900D928A95E1F70E94F50F0E946E
:10227000E70F0DC0561729F14D875E878D859E8526
:102280000E94A20F81112CC0C8010E94300FFF24B0
:10229000F394D6C0282F207F69F77A2DB98AA88AAF
:1022A0006E2D89890E94A70F8CED91E00E94300F5E
:1022B00086E0F60111928A95E9F70E94E70FF12C6A
:1022C000BFC04913D9CFE110D7CFF8018583C8012A
:1022D0000E94300F86E0F60111928A95E9F7B0C0AE
:1022E000EE2091F22091E101822F82958F7090E093
:1022F00002970CF4B2CF8091DC019091DD019A83BA
:1023000089831B82BD82AC822E83CE010196A3CF2E
:10231000E83CF10508F047C0FE2CEE2009F4B4CFEC
:10232000561330C049132EC02091E10120FD21C079
:10233000822F82958F70482F50E041155105C9F0CA
:10234000F80125834F30510541F08F5F982F92950A
:10235000907F822F8F70892B8583C8010E94300F58
:1023600086E0F801ACEDB1E001900D928A95E1F7BD
:1023700042C086E0F801ACEDB1E001900D928A9583
:10238000E1F75EC04D875E878D859E850E94A20F16
:10239000811163CF8091E10181608093E101C801E7
:1023A0000E94300F4DC07A2DB98AA88A6E2D898976
:1023B0000E94A70F86E0F60111928A95E9F71BC0EB
:1023C000EE2009F461CF4D875E878D859E850E9442
:1023D000A20FF82E882309F457CF86E0F801ACED60
:1023E000B1E001900D928A95E1F78CED91E00E94A9
:1023F000B50B0E94F50F0E94E70F22C04D875E8744
:102400008D859E850E940915292F22952F702230D7
:1024100028F49F7039F0811105C00BC0243028F4D6
:102420009F7049F4805E883020F0C8010E94300F10
:102430009F2CF92C05C0F8019581907F99F7F9CF71
:102440008F2D61960FB6F894DEBF0FBECDBFDF9122
:10245000CF911F910F91FF90EF90DF90CF90BF90A1
:10246000AF909F9008951F93CF93DF93CDB7DEB7C2
:102470002C970FB6F894DEBF0FBECDBF4F835887A1
:1024800069877A878B879C87CE0107960E946110A7
:102490008823D1F09F8188852A853B85232B31F0C5
:1024A0008F3F31F481E09F3F19F403C081E001C008
:1024B00080E080FD47C04F81588569857A858B858E
:1024C0009C850E94B60F3EC086E0FE013796DE0175
:1024D000119601900D928A95E1F7FF81E8856A8552
:1024E0007B856115710531F0EF3F31F481E0FF3FED
:1024F00019F403C081E001C080E080FD23C0209179
:10250000AB0130E0C9010196877099274091AA017B
:1025100050E084179507F1F1F983EA837D836C839A
:1025200096E0929FD001939FB00D1124A455BE4F09
:10253000FE01319601900D929A95E1F78093AB01DF
:102540000E94C60F16E08091AA019091AB018917F5
:1025500071F1189FC001112484559E4F0E94611093
:10256000882329F1E091AA011E9FF0011124E4556E
:10257000FE4F4081518162817381848195810E94E7
:10258000B60F8091AA0190E00196877099278093F9
:10259000AA01D9CF0E947A0F1092AB011092AA0122
:1025A000ECEDF1E086E0DF011D928A95E9F72C96CB
:1025B0000FB6F894DEBF0FBECDBFDF91CF911F9154
:1025C0000895EF92FF920F931F93CF93DF938C01A7
:1025D000892B09F46CC0F12CEE24E394E8012196D8
:1025E000F8018491843740F4843008F051C0813080
:1025F00081F0823019F15BC0853709F444C0A8F13D
:102600009CE7980F903708F052C08F770E94650CB6
:1026100041C00E5F1F4FFE01849190E2980F9830E9
:1026200050F48770FE2D01C0FF0F8A95EAF78F2FB7
:102630000E948C1514C00E94BB0B2DC00E5F1F4F53
:10264000FE01849190E2980F983060F48770FE2D1F
:1026500001C0FF0F8A95EAF78F2F0E9492150E9402
:10266000BB1519C00E94650C16C00E5F1F4FFE01FE
:10267000C491CC2381F08FE99FE00197F1F700C06E
:102680000000C150F6CF0E5F1F4FFE01F49003C053
:102690000E94BB0B8E018F2D882309F49FCFEFE999
:1026A000FFE03197F1F700C000008150F5CFDF91D6
:1026B000CF911F910F91FF90EF9008950895089585
:1026C0000C945F130C9460130E9462136093F001EA
:1026D0007093F1018093F2019093F3010C94600FD9
:1026E0000C9464130F931F930091F0011091F1016A
:1026F0002091F2013091F301602B712B822B932BEF
:102700001F910F910C9464130F931F930091F0018C
:102710001091F1012091F2013091F30160237123B6
:10272000822393231F910F910C9464130F931F9393
:102730000091F0011091F1012091F2013091F3012B
:1027400060277127822793271F910F910C946413A0
:102750000C945F130E94A8136093EC017093ED0139
:102760008093EE019093EF010C94600F60E070E0B5
:10277000CB010C94AA130F931F9341E050E060E04B
:1027800070E08A019B0104C0000F111F221F331F3C
:102790008A95D2F7C901B8011F910F910C94AA1321
:1027A0000F931F9341E050E060E070E004C0440FDD
:1027B000551F661F771F8A95D2F78091EC01909183
:1027C000ED01A091EE01B091EF018A019B01082B70
:1027D000192B2A2B3B2BC901B8011F910F910C9487
:1027E000AA130F931F9341E050E060E070E004C033
:1027F000440F551F661F771F8A95D2F74095509555
:10280000609570958091EC019091ED01A091EE01A1
:10281000B091EF018A019B01082319232A233B234E
:10282000C901B8011F910F910C94AA130F931F9324
:1028300041E050E060E070E004C0440F551F661FA7
:10284000771F8A95D2F78091EC019091ED01A091CC
:10285000EE01B091EF018A019B01082719272A2771
:102860003B27C901B8011F910F910C94AA130F9334
:102870001F930091EC011091ED012091EE01309138
:10288000EF01602B712B822B932B1F910F910C94D6
:10289000AA130F931F930091EC011091ED01209169
:1028A000EE013091EF0160237123822393231F9166
:1028B0000F910C94AA130F931F930091EC011091A8
:1028C000ED012091EE013091EF0160277127822701
:1028D00093271F910F910C94AA13089524E0929FBF
:1028E000900D1124890FE82FE695E695E6958770FF
:1028F00051E001C0550F8A95EAF785E0E89FF001A5
:102900001124EE51FE4F20E030E070E04081CB0119
:10291000022E02C0969587950A94E2F78170819500
:1029200084278523842781932F5F3F4F25303105EE
:1029300069F7089524E0929F900D1124890F682F64
:10294000669566956695982F977085E0689FB001AB
:10295000112440E050E080E0FB01E40FF51FEE5150
:10296000FE4F208130E0092E02C0369527950A944B
:10297000E2F721703327042E01C0220F0A94EAF7F0
:10298000822B4F5F5F4F4530510531F70895BF925D
:10299000CF92DF92EF92FF920F931F93CF93DF932B
:1029A0008C01C090EC01D090ED01E090EE01F09030
:1029B000EF018091F0019091F101A091F201B091AD
:1029C000F301C82AD92AEA2AFB2ACFE1D0E0D701AD
:1029D000C6010C2E04C0B695A795979587950A94C5
:1029E000D2F780FD04C0219790F7B12C07C0BC2E10
:1029F000B8018C2F0E948D020197A9F38B2DDF91D6
:102A0000CF911F910F91FF90EF90DF90CF90BF90EB
:102A10000895CF93DF93EC010E94C714BE010E947A
:102A20008D02DF91CF9108951F93CF93DF93EB0138
:102A30009091A901992321F0CB010E94091513C09F
:102A4000882349F0CB010E94C714182F682FCE01AC
:102A50000E946E1404C0CB010E949A14182FBE016C
:102A6000812F0E948D02DF91CF911F910895809157
:102A7000F40185958595859508958091F401877079
:102A800008959091F401977081E009F480E0089531
:102A900090913E0292FB222720F9281751F080FBEB
:102AA00092F990933E0280913D0290913E020C94E7
:102AB0005416089580913E0282FB882780F991E0A8
:102AC00089270C94481581E00C94481580E00C94FB
:102AD000481580911802089590911802892B8093CF
:102AE0001802089580959091180289238093180206
:102AF000089510921802089590911702892B8093DF
:102B000017020895809590911702892380931702E8
:102B1000089510921702089590911602892B8093C0
:102B200016020895809590911602892380931602CB
:102B300008951092160208958091F5010895089560
:102B40000C949F150C94A01590913E0292FD08C024
:102B50009091F501981721F08093F5010C94A2153E
:102B600008958091F501882329F01092F50180E005
:102B70000C94A2150895E0910801F091090180914B
:102B800018028083E0910801F09109019081809101
:102B90001702892B8083E0910801F091090190814F
:102BA00080911602892B80838091F501882381F022
:102BB000E0910801F09109019081892B8083809137
:102BC0000801909109010E94DF1681110E94B11540
:102BD00080910801909109010C94500A0C949F1562
:102BE00090913E0292FD10C098E0899F90011124BF
:102BF000262B2093F4010E94D0138091F401859537
:102C0000859585950C94EE150C94D0131092F401D3
:102C100080E00C94EE152091F4018095822380933E
:102C2000F401982F977041F430E0482F082E000CE3
:102C3000550B2417350721F490913E0292FF07C0EF
:102C40008595859585950E94F1130C940616089537
:102C500080E008956FEF7FEF80E090E00C94B41F68
:102C600080E090E00E94901F21E08A3E9E4F09F094
:102C700020E0822F089582E090E00C94881F83E08A
:102C800090E00C94881FCF9384E090E00E94881F0E
:102C9000C82F82E290E00E94881F2C2F30E0A9010B
:102CA000582BCA01CF910895CF93C92F682F84E084
:102CB00090E00E94961F6C2F82E290E0CF910C94DE
:102CC000961FAB01BC018FE090E00C94A81FAB01F4
:102CD000BC0183E190E00C94A81F60E070E0CB01A0
:102CE0000C94671660E070E0CB010E9461160C94B2
:102CF0006D166AEE7EEF80E090E00E94B41F60E007
:102D000082E090E00E94961F60E083E090E00E94E5
:102D1000961F1092F0011092F1011092F2011092A0
:102D2000F30160E084E090E00E94961F60E082E2A0
:102D300090E00E94961F60E085E090E00E94961F60
:102D400060E086E090E00E94961F6FEF87E090E0E1
:102D50000E94961F40E050E0BA0188E090E00E9497
:102D6000A81F60E08DE090E00E94961F40E050E0D8
:102D7000BA0188E190E00E94A81F60E087E190E03E
:102D80000E94961F40E050E0BA018CE190E00E9462
:102D9000A81F60E070E080E290E00E94B41F40E075
:102DA00050E0BA0188E190E00E94A81F0C947216CE
:102DB0000C947916682F8EE090E00C94961FFC011D
:102DC000329680911401882331F080913D0287FF73
:102DD00002C09EE101C096E080E0915028F0219170
:102DE0002223D9F38F5FF9CF0895662351F1209103
:102DF00014012223E9F020913D0227FF19C0462F3C
:102E00004695469546954E31E0F4677021E030E0F6
:102E100002C0220F331F6A95E2F7FC01E40FF11D97
:102E2000828190E02823392381E0232B69F409C0B3
:102E3000FC01329608962191621729F0E817F907EC
:102E4000D1F780E0089581E008959C01FC0132965D
:102E50009FEF80E04191461789F09F3F19F441119F
:102E600001C0982F8F5F8630A9F79F3F39F0F90195
:102E7000E90FF11D97FDFA956283089508959C016D
:102E80002A5F3F4FFC014281461301C01282019626
:102E900082179307B9F70895262F2695269526952C
:102EA0002E3168F4FC01E20FF11D677021E030E083
:102EB00001C0220F6A95EAF78281282B22830895A8
:102EC000262F2695269526952E3170F4FC01E20FCB
:102ED000F11D677021E030E001C0220F6A95EAF72A
:102EE0002095828128232283089520911401222392
:102EF00029F020913D0227FD0C944C170C942517C6
:102F000020911401222329F020913D0227FD0C94E9
:102F100060170C943F1720911401FC013296222374
:102F200031F080913D0287FF02C08EE101C086E052
:102F3000DF011D928A95E9F7089508950C949D1775
:102F40000C949D170E94A0170E9404050E949E17D2
:102F500080E00E94B804811108C081E00E94B8049A
:102F600091E0811103C090E001C091E0892F0895A4
:102F70000C949D170C94B81780914B02843049F142
:102F80000E94BA1780E00E94650210921A0220E4A3
:102F900088E190E00FB6F894A895809360000FBE8A
:102FA0002093600083B7817F846083BF83B7816093
:102FB00083BF7894889583B78E7F83BF0FB6F894CC
:102FC000A8958091600088618093600010926000F5
:102FD0000FBE08950C949D170E947A0F0E94440A18
:102FE0000E9465020C94EA171F920F920FB60F927F
:102FF00011248F939F93AF93BF9380911A028111F5
:1030000013C08091430290914402A0914502B09177
:1030100046024196A11DB11D809343029093440244
:10302000A0934502B0934602BF91AF919F918F91BB
:103030000F900FBE0F901F90189582E084BD93E013
:1030400095BD9AEF97BD80936E0008952FB7F894C1
:103050008091430290914402A0914502B0914602B2
:103060002FBF08952FB7F8946091430270914402E6
:1030700080914502909146022FBF08959C014FB761
:10308000F8948091430290914402A0914502B0913E
:1030900046024FBF821B930B089578941F920F92A4
:1030A0000FB60F9211248F939F93AF93BF9380918C
:1030B000430290914402A0914502B09146020196CC
:1030C000A11DB11D8093430290934402A093450239
:1030D000B0934602BF91AF919F918F910F900FBE19
:1030E0000F901F90189587E797E7909301088093BA
:1030F00000089AE088E10FB6F894A89580936000E4
:103100000FBE90936000FFCF909383018093820164
:10311000089580913B020895CF93DF9300D01F92D2
:10312000CDB7DEB790914B02943019F589837B833C
:103130006A8382E08093E9008FEF9091E8008150EC
:1031400095FD06C095ED9A95F1F700008111F5CF38
:103150008091E80085FF0DC040E050E063E070E042
:10316000CE0101960E94BC1A8091E8008E77809370
:10317000E8000F900F900F90DF91CF910895BC0160
:1031800084E00C948C18BC0183E00C948C1822E031
:103190002093E9002FEF3091E800215035FD06C063
:1031A00035ED3A95F1F700002111F5CF2091E800B7
:1031B00025FF0BC040E050E066E070E00E94BC1AC2
:1031C0008091E8008E778093E8000895CF93DF9395
:1031D00020911401222339F020913D0227FF03C0E2
:1031E00060E222E002C068E021E02093E9002FEFD6
:1031F0003091E800215035FD06C035ED3A95F1F7E4
:1032000000002111F5CF2091E80025FF1DC0EC0141
:1032100080911401811105C040E050E068E070E049
:1032200003C070E040E050E0CE010E94BC1A8091E3
:10323000E8008E778093E80080E2FE01ABE1B2E027
:1032400001900D928A95E1F7DF91CF9108958091D9
:103250004A02811109C00E944D1C0E94AA1C809143
:10326000E20084608093E200089510924A0208957B
:1032700008950895089542E061EC81E00E94C61B24
:1032800042E261EC82E00C94C61B80914D028330D7
:1032900009F460C030F4813071F0823009F499C0D3
:1032A00008958A3009F485C08B3009F46BC08930E9
:1032B00009F0A7C020C080914C02813A09F0A1C05A
:1032C0008091E800877F8093E80080915002909180
:1032D0005102892B21F460E28BE192E003C060E0AF
:1032E00080E090E070E00E94071B8091E8008B77FF
:1032F0008093E800089580914C02813209F081C0EA
:103300008091500290915102029708F07AC080910A
:10331000E800877F8093E8008091E80082FD05C087
:1033200080914B028111F8CF6CC02091F300809105
:10333000F20090E0922B029729F48091F1008B7FAC
:10334000813021F48091F10080933B028091E8006C
:103350008B7753C080914C02813A09F052C0809122
:10336000500290915102892B09F04BC08091E800E6
:10337000877F8093E8008091E80080FFFCCF8091F8
:10338000140136C080914C028132D9F580915002EF
:1033900090915102892BA9F58091E800877F809355
:1033A000E8000E94FB1B80914E02809314010C9454
:1033B0007A0F80914C02813221F58091E800877F5D
:1033C0008093E8000E94FB1B80914F0280933C0297
:1033D000089580914C02813AA1F48091E800877FA2
:1033E0008093E8008091E80080FFFCCF80913C0250
:1033F0008093F1008091E8008E778093E8000C9430
:10340000FB1B089584B7877F84BF0FB6F894A895F7
:1034100080916000886180936000109260000FBE10
:1034200090E080E80FB6F89480936100909361007B
:103430000FBE0E94CF0A0E944D1C0E94AA1C8091C0
:10344000E20084608093E20078940E943F1F0E9413
:10345000DD0A8AE091E00E943F0A80914B028530AC
:10346000A9F480914B02853079F40E94BC178091B9
:1034700049028823B1F30E94A217882391F30E9486
:10348000A61A0E947A0FEDCF0E94EC170E94E30A61
:103490000E94D90AE2CF0C944D1A292F33272330EA
:1034A0003105C9F060F42130310581F02230310559
:1034B00009F044C08BE390E026E731E043C02132BD
:1034C0003105E1F02232310549F138C082E190E066
:1034D00021EB31E037C099278130910549F028F080
:1034E000029761F5E8E3F1E005C0E2E7F1E002C030
:1034F000ECE5F1E0849190E09F0124C06115710535
:1035000041F061307105D1F489E090E021EA31E0C9
:1035100019C089E090E028E831E014C06115710518
:1035200041F06130710551F486EB90E023EC31E01D
:1035300009C080E490E029E732E004C080E090E038
:1035400020E030E0FA0131832083089580E189BDD5
:1035500082E189BD09B400FEFDCF8091D8008F7D46
:103560008093D8008091E00082608093E000809199
:10357000E00081FDFCCF0895CF92DF92EF92FF92A1
:103580000F931F93CF93DF93EC018B017A010E947D
:103590001A1C811133C0E114F10439F0F701808164
:1035A0009181081B190BC80FD91FC12CD12C0115F3
:1035B000110519F18091E80085FD16C08091E800A1
:1035C0008E778093E800E114F10449F0F7018081DF
:1035D0009181C80ED91ED182C08285E00FC00E94A1
:1035E0001A1C882321F30AC089918093F1000150AD
:1035F0001109FFEFCF1ADF0ADACF80E0DF91CF9118
:103600001F910F91FF90EF90DF90CF900895209140
:103610005202309153022617370748F061157105A1
:1036200039F42091E8002E772093E80001C0B90119
:10363000FC0120E06115710579F180914B0288232E
:10364000F1F18530F1F18091E80083FD3CC080917B
:10365000E80082FD2EC08091E80080FFEBCF209132
:10366000F3008091F20090E0922B6115710551F00A
:103670008830910538F421912093F100615071094F
:103680000196F3CF21E0089709F020E08091E8004F
:103690008E778093E800CECF2111CFCF0AC08091E2
:1036A0004B02882361F0853061F08091E80083FD52
:1036B0000AC08091E80082FFF2CF80E0089582E0A6
:1036C000089583E0089581E0089520915202309199
:1036D00053022617370748F06115710539F4209118
:1036E000E8002E772093E80001C0B901FC0120E03A
:1036F0006115710591F180914B02882309F440C056
:10370000853009F43FC08091E80083FD3DC0809181
:10371000E80082FD2FC08091E80080FFE9CF209172
:10372000F3008091F20090E0922B6115710559F041
:103730008830910540F424912093F1003196615036
:1037400071090196F2CF21E0089709F020E08091FD
:10375000E8008E778093E800CBCF2111CCCF0AC050
:1037600080914B02882361F0853061F08091E80000
:1037700083FD0AC08091E80082FFF2CF80E00895C7
:1037800082E0089583E0089581E00895982F9730AE
:1037900068F59093E900981739F07091EC0020914A
:1037A000ED005091F00003C0242F762F50E021FD52
:1037B00002C09F5FECCF3091EB003E7F3093EB0077
:1037C0003091ED003D7F3093ED003091EB003160A2
:1037D0003093EB007093EC002093ED005093F000D9
:1037E0002091EE0027FDE5CF80E008958F70809353
:1037F000E90081E0089580914C0287FF11C080911B
:10380000E80082FD05C080914B028111F8CF11C004
:103810008091E8008B770BC080914B02882349F0A0
:103820008091E80080FFF8CF8091E8008E77809348
:10383000E80008952091E4003091E50095E640917C
:10384000EC00842F817040FF23C08091E80080FD50
:103850001DC080914B02882399F0853099F08091AA
:10386000EB0085FD11C04091E4005091E500241764
:10387000350729F3915011F09A01E1CF84E00895C2
:1038800082E0089583E0089581E0089580E008953E
:103890004091E80042FFDDCF08950E94BB1C0E94CA
:1038A000C31CE0EEF0E0808181608083E8EDF0E011
:1038B00080818F77808319BCA7EDB0E08C918E7FDB
:1038C0008C9380818F7E808310924A0208950F939B
:1038D0001F93CF93DF930E94BB1C0E94C31CC8EDB3
:1038E000D0E088818F778883888180688883888109
:1038F0008F7D888319BC10924B0210924702109260
:1039000049021092480200EE10E0F80180818B7F9E
:10391000808388818160888342E060E080E00E944B
:10392000C61BE1EEF0E080818E7F8083E2EEF0E066
:10393000808181608083808188608083F8018081BC
:103940008E7F8083888180618883DF91CF911F91F2
:103950000F910895E8EDF0E080818F7E8083E7EDA0
:10396000F0E080818160808384E082BF81E0809389
:103970004A020C94671CE8EDF0E080818E7F808322
:103980001092E20008951092DA001092E10008957A
:103990001F920F920FB60F9211242F933F934F93C4
:1039A0005F936F937F938F939F93AF93BF93EF93A7
:1039B000FF938091E10082FF0BC08091E20082FFC3
:1039C00007C08091E1008B7F8093E1000E943E1F41
:1039D0008091DA0080FF1FC08091D80080FF1BC05B
:1039E0008091DA008E7F8093DA008091D90080FF89
:1039F0000DC080E189BD82E189BD09B400FEFDCF23
:103A000081E080934B020E94271905C019BC1092D7
:103A10004B020E9435198091E10080FF19C080910E
:103A2000E20080FF15C08091E2008E7F8093E2006B
:103A30008091E20080618093E2008091D8008062F2
:103A40008093D80019BC85E080934B020E943919FD
:103A50008091E10084FF30C08091E20084FF2CC09F
:103A600080E189BD82E189BD09B400FEFDCF80916E
:103A7000D8008F7D8093D8008091E1008F7E809365
:103A8000E1008091E2008F7E8093E2008091E2006D
:103A900081608093E20080914702882311F084E0E6
:103AA00007C08091E30087FD02C081E001C083E090
:103AB00080934B020E943A198091E10083FF29C054
:103AC0008091E20083FF25C08091E100877F809391
:103AD000E10082E080934B02109247028091E10066
:103AE0008E7F8093E1008091E2008E7F8093E200E0
:103AF0008091E20080618093E20042E060E080E03B
:103B00000E94C61B8091F00088608093F0000E94A4
:103B10003819FF91EF91BF91AF919F918F917F9154
:103B20006F915F914F913F912F910F900FBE0F902A
:103B30001F9018951F920F920FB60F9211242F937A
:103B40003F934F935F936F937F938F939F93AF9325
:103B5000BF93CF93DF93EF93FF93C091E900CF70B2
:103B60008091EC00D82FD17080FDD0E81092E90050
:103B70008091F000877F8093F00078940E94DE1D92
:103B80001092E9008091F00088608093F000CD2BC6
:103B9000CF70C093E900FF91EF91DF91CF91BF917A
:103BA000AF919F918F917F916F915F914F913F91D5
:103BB0002F910F900FBE0F901F9018951F93CF93CA
:103BC000DF93CDB7DEB7AA970FB6F894DEBF0FBE6E
:103BD000CDBFECE4F2E08091F100819322E0E43586
:103BE000F207C9F70E9445198091E80083FF2EC1B2
:103BF00080914C0290914D02492F50E04A3051057E
:103C000008F024C1FA01EC58FF4F0C946E1F803865
:103C100021F0823809F01AC108C0809148029091C1
:103C20004902992389F082600FC0809150028F7001
:103C3000873008F00BC18093E9008091EB0085FB91
:103C4000882780F91092E9009091E800977F90937F
:103C5000E8008093F1001092F100D1C0282F2D7F51
:103C600009F0F4C0882319F0823061F0EFC0809130
:103C70004E02813009F0EAC0933009F080E0809371
:103C800049022EC080914E0281112AC080915002BB
:103C90008F702FEF280F263008F0D8C08093E900EE
:103CA0002091EB0020FF1CC0933021F48091EB00A9
:103CB000806214C09091EB0090619093EB0021E042
:103CC00030E0A90102C0440F551F8A95E2F74093E6
:103CD000EA001092EA008091EB0088608093EB008C
:103CE0001092E9008091E800877F8093E8000E94AD
:103CF000FB1BACC08111AAC010914E021F778091AE
:103D0000E3008078812B8093E3008091E800877F37
:103D10008093E8000E94FB1B8091E80080FFFCCFAD
:103D20008091E30080688093E300111102C082E07B
:103D300001C083E080934B0289C08058823008F034
:103D400085C080914E0290914F028C3D53E09507C3
:103D500079F583E08A838AE289834FB7F894DE019C
:103D6000139620E03EE051E2E32FF0E0509357003D
:103D7000E49120FF03C0E295EF703F5FEF708E2F5C
:103D800090E0EA3010F0C79601C0C0968D939D93E5
:103D90002F5F243149F74FBF8091E800877F8093E0
:103DA000E8006AE270E0CE0101960E94071B16C08F
:103DB0006091500270915102AE014F5F5F4F0E94BF
:103DC0004B1ABC01892B09F441C09091E800977F00
:103DD0009093E80089819A810E94651B8091E80098
:103DE0008B778093E80032C0803881F58091E800BD
:103DF000877F8093E800809147028093F100809153
:103E0000E8008E7772CF811121C080914E0290918F
:103E10004F0299270297D4F48091E800877F80931E
:103E2000E80080914E02809347020E94FB1B809124
:103E30004702811106C08091E30087FD02C081E046
:103E400001C084E080934B020E943B198091E800FE
:103E500083FF0AC08091E800877F8093E80080910B
:103E6000EB0080628093EB00AA960FB6F894DEBF59
:103E70000FBECDBFDF91CF911F9108950895CF93CD
:103E800080914B028823A1F0C091E900CF709091FE
:103E9000EC00892F817090FD80E8C82B1092E9001A
:103EA0008091E80083FD0E94DE1DCF70C093E90081
:103EB000CF91089597FB072E16F4009407D077FD55
:103EC00009D00E94741F07FC05D03EF4909581959F
:103ED0009F4F0895709561957F4F0895EE0FFF1FD6
:103EE0000590F491E02D0994AA1BBB1B51E107C07A
:103EF000AA1FBB1FA617B70710F0A61BB70B881F7A
:103F0000991F5A95A9F780959095BC01CD01089508
:103F1000F999FECF92BD81BDF89A992780B5089591
:103F2000A8E1B0E042E050E00C94BC1F262FF999C4
:103F3000FECF92BD81BDF89A019700B4021639F008
:103F40001FBA20BD0FB6F894FA9AF99A0FBE0895D9
:103F50000396272F0E94971F0E94961F252F0E94CD
:103F6000971F242F0C94971F0196272F0E94971FAD
:103F70000C94961FDC01CB01FC01F999FECF06C021
:103F8000F2BDE1BDF89A319600B40D924150504017
:083F9000B8F70895F894FFCF83
:103F98002808641E140A321EF6018918E618C71884
:103FA800C318BF1801E200E900EA00B500B600B77F
:103FB80000CD008301CC008A0192019401210223E3
:103FC8000224022502260227022A02B300B4006F47
:103FD8000070008182839166343532909497C6369A
:103FE800E200E900EA00B500B600B700CD008301A1
:103FF800CC008A01920194012102230224022502A5
:10400800260227022A02B300B4006F0070008182E2
:02401800830023
:00000001FF
