:100000000C9457010C949E010C949E010C949E013B
:100010000C949E010C949E010C949E010C949E01E4
:100020000C949E010C949E010C94BE1C0C94901D8B
:100030000C94EA170C949E010C949E010C949E0162
:100040000C949E010C949E010C949E010C949E01B4
:100050000C949E010C9443180C949E010C949E01E8
:100060000C949E010C949E010C949E010C949E0194
:100070000C949E010C949E010C949E010C949E0184
:100080000C949E010C949E010C949E010C949E0174
:100090000C949E010C949E010C949E010C949E0164
:1000A0000C949E010C949E010C949E01280D280D29
:1000B0005A0D5A0DA70DC50DE60EE60ED00D650EB4
:1000C000760E760ED60EE60EE60EDF0E860F860F45
:1000D000980F980F8F0F980F980F980F860F860F15
:1000E000940F980F980F940FFD1D241E1C1F241EA3
:1000F0001C1F701E931E1C1FEA1EF91E680069005B
:100100006A0072426B006C006D0073416E006F00FC
:10011000700071002F00300028000000A800AA0025
:10012000A9000000AC00AE00AB00005C220353004D
:1001300074007200650061006D00200043006800DB
:10014000650061007000200032007800340000007B
:1001500014034B0079006C0065002000480061002A
:100160007200740000000403090409023B0002014C
:1001700000A0FA0904000001030101000921110196
:1001800000012240000705810308000A090401005C
:10019000010300000009211101000122B60007053A
:1001A000820320000A1201100100000008EDFE1475
:1001B0001201000102000105010902A101850209E5
:1001C00001A10005091901290815002501950875E7
:1001D0000181020501093009311581257F950275DC
:1001E00008810609381581257F9501750881060566
:1001F0000C0A38021581257F950175088106C0C05B
:1002000005010980A101850319012AB700150126FE
:10021000B700950175108100C0050C0901A1018589
:100220000419012AA002150126A00295017510816A
:1002300000C005010906A1018505050719E029E7A8
:10024000150025019508750181020507190029EFA0
:100250001500250195F07501810205081901290590
:10026000950575019102950175039101C00501097C
:1002700006A101050719E029E71500250195087574
:100280000181029501750881010507190029FF15F3
:100290000026FF009506750881000508190129054B
:1002A000950575019102950175039101C000112416
:1002B0001FBECFEFDAE0DEBFCDBF04B603FE27C01E
:1002C00080914D0290914E02A0914F02B091500248
:1002D0008730904BA740B04BD1F410924D02109252
:1002E0004E0210924F021092500214BE84B7877FC4
:1002F00084BF0FB6F894A8958091600088618093C0
:100300006000109260000FBEE0E0F8E3099511E094
:10031000A0E0B1E0E4E8FFE302C005900D92A03850
:10032000B107D9F722E0A0E8B1E001C01D92AD34D9
:10033000B207E1F70E94F8190C94C01F0C9400005A
:1003400081E0089581E008950C94A20108950C9431
:10035000A6011F93CF93DF9300D000D01F92CDB79B
:10036000DEB749835A836B833091A70189819A81D3
:10037000311114C0662359F0222349F00E94BD14A4
:10038000182F682F89819A810E94681403C00E94E7
:100390009214182F69817A81812F04C00E94BD14A4
:1003A00069817A810F900F900F900F900F90DF91DD
:1003B000CF911F910C946C02FC01262F408151813A
:1003C0006281738184810C94A901CF93DF93EC0146
:1003D00060E00E94DC01BE01DF91CF910C94A70187
:1003E0000E948E040C94C0040C94BC0408950E94D6
:1003F000740F0E94F6012FEF84E39CE021508040AF
:100400009040E1F700C000000C9469180F931F930F
:10041000CF93DF938C0161E00E94DC01EC01B80115
:100420000E94A4018823F1F1B801CE010E948B083B
:100430008823C1F1B801CE010E94DD08882391F123
:10044000B801CE010E94080A882361F1F801828177
:10045000882309F1CB358DE5D807C1F050F4C115DB
:10046000FCE5DF0781F0CF3DDC45A9F40E94CE1604
:1004700019C0CC35EDE5DE0761F0CD35DD4559F429
:100480000E94501508C00E94F7010CC00E94591527
:1004900002C00E945C15C801DF91CF911F910F919E
:1004A0000C94A00180E0DF91CF911F910F910895EE
:1004B00008950C94580281E008950C945B02CF9348
:1004C000C82F0E9459028C2F0E945D02CF9108957F
:1004D00080E090E008950895E72FF0E0E80FF11D27
:1004E000E80FF11DEE0FFF1FEE0FFF1FE60FF11DCE
:1004F000EE0FFF1FE450FF4F859194910895880FF0
:10050000991FFC01E45DFE4F859194910895CF936E
:10051000DF930E946C020E949F03EC0181159045BD
:1005200008F041C0C11580E4D80708F0D1C0C83E2A
:10053000D10510F5C03ED10508F0FDC0C83AD1057F
:1005400078F4C53AD10508F0A2C0C130D10509F44C
:10055000F2C008F4EEC0C430D10508F0ECC0E9C028
:10056000CF3BD10508F49BC0C03CD10508F4E1C0E5
:10057000CE01805C91099EC0C11590E2D90758F464
:10058000C11521E0D20708F0D6C0CD3ED10508F450
:10059000D0C0D065D0C0C11580E3D80708F08EC0A8
:1005A000CE019F7087C0C11595E5D90708F043C0FB
:1005B000C11524E5D20708F0A2C0C11582E5D8070D
:1005C00008F5C11591E5D90708F085C0CE0174E0A2
:1005D000969587957A95E1F783709C2F937021E02B
:1005E00030E002C0220F331F9A95E2F73C68382BA7
:1005F000CF70C695C69580E2C89FE0011124C22B3A
:10060000D32B99C09E01237033278C2F8695869516
:10061000C115D34508F064C0C1E0D0E002C0CC0FE2
:10062000DD1F2A95E2F720E2829FC0011124C82B2A
:10063000D92BDC6880C0C11529E5D207A0F4C1150B
:1006400088E5D80708F060C0C11596E5D90708F01D
:1006500070C08C2F0E9433048F71C82FD0E0DC2F24
:10066000CC27D06268C0C1152AE5D20708F451C072
:10067000CE0190568115904208F05BC08D2F8F718E
:100680000E943304DD27D0628F71D82B54C0C55A25
:10069000D0E0CD5BDE4FC881D0E0D0644CC0C85AFA
:1006A000D0E0CC0FDD1FCB5EDE4F0990D881C02D8E
:1006B000D46441C00E947F02EC013DC0CE01992765
:1006C000D3FF03C0EC01D86C36C0EC01D06C33C052
:1006D000DF70D06A30C0DC2FCC27C16FD06A2BC04E
:1006E000C1E0D0E002C0CC0FDD1F2A95E2F720E286
:1006F000829FC0011124C82BD92BDA681CC0DC2FC3
:10070000CC27C46FD06A17C0DC2FCC27C06FD06A4B
:1007100012C08C2F8F700E94330494E0D695C79539
:100720009A95E1F7CF70D0E0DC2FCC27D069C82BA9
:1007300002C0C0E0D0E0CE01DF91CF9108958238B1
:10074000910569F1B0F48133910509F46DC048F465
:100750008932910509F463C08A32910509F469C0B0
:1007600008958533910509F455C089339105B9F091
:100770000895833E910569F138F4803E9105B1F00A
:10078000823E910509F10895863E9105A9F1873EC3
:100790009105B9F1843E910509F064C023C0209110
:1007A000360220FD4FC021FD4DC0089580913602D4
:1007B00080FD44C08091370280FF44C080913602A2
:1007C00084FD42C083EE4DC08091360282FF38C066
:1007D000F5CF8091360282FD33C08091370280FDD3
:1007E00031C0ECCF8091370281FF32C08091360258
:1007F00084FD2AC087EE35C08091360283FF26C073
:10080000F5CF8091360283FD21C08091370281FDB2
:100810001FC0ECCF8091360285FD1CC01DC08091A9
:10082000360285FD19C016C08091360286FD16C0BD
:1008300017C08091360286FD13C010C089E311C035
:1008400082EE0FC080EE0DC080E00BC086EE09C0C6
:1008500084EE07C089E205C085E303C08AE201C0D7
:1008600081E390E008959091360292FF0DC0282F09
:100870002871283019F4877F846006C0282F2471DE
:10088000243011F48B7F886093FF0DC0282F2871CE
:10089000283119F4877E846106C0282F2471243101
:1008A00011F48B7E88612091370220FF0DC0382F14
:1008B0003871383019F4877F816006C0382F317164
:1008C000313011F48E7F886021FF0DC0282F2871F0
:1008D000283119F4877E816106C0282F21712131CA
:1008E00011F48E7E886194FD877E08950C94201605
:1008F0000E94FE048FE39CE90197F1F700C000001D
:100900000E94FE0480E00E94B20480FF04C00E94A6
:1009100076040C94691808950C9478040E942616A5
:10092000811102C00E94CE160E94311680931202DD
:100930000E94391690933702809336020E948C04ED
:100940000E943516682F70E080E090E00E946A13E4
:100950006091E5017091E6018091E7019091E801D5
:100960000C94A213E82FF0E0E65CFD4F808108951F
:10097000089508950C94B9040C94BA040C94B90425
:100980000C94BE04CF93DF9346E451E0A1E0B0E0C5
:1009900020E030E0FA01E20FF31F80818F3FA1F0E9
:1009A000E82FE295EF70F0E061A18F70ED0102C0D9
:1009B000CC0FDD1F8A95E2F7CE019C2F90959623F0
:1009C00091A392A1892B82A32F5F3F4F2430310541
:1009D00009F74C5F5F4FD1E04E345D07C9F61092C6
:1009E000380210923A021092390210923B0282E0D1
:1009F0000E944E05DF91CF910C94F0010F931F934D
:100A0000CF93DF93E8E3F2E066E471E0C0E001E059
:100A100010E080E090E050E0DB01A80FB91F4C919E
:100A20004F3FC9F0A42FA295AF70B0E090962C91E3
:100A300030E04F7002C0359527954A95E2F720FDCA
:100A400007C09801082E01C0220F0A94EAF702C0DD
:100A500020E030E0522B019684309105E9F6808148
:100A6000851719F0508381E001C080E0C82B3196D2
:100A70006C5F7F4F82E0EA33F80759F62C2F42E093
:100A80006AE372E088E392E00E944F050E94F4015D
:100A90008C2FDF91CF911F910F9108950895FF92B0
:100AA0000F931F93CF93DF938C01F62ED72FC42F74
:100AB000222349F081E0809384010E941C189093C6
:100AC000830180938201809184018823C1F0809109
:100AD0008201909183010E943418069780F0EF2DD7
:100AE000FD2FD8014C2F50E0CD01801B910B8417B6
:100AF00095071CF48D918193F7CF10928401DF91BB
:100B0000CF911F910F91FF90089580918B0180FFED
:100B10000BC06091050185E0689FB00111247595B7
:100B20006795759567952BC081FF09C06091050198
:100B300085E0689FB00111247595679520C082FFFC
:100B400007C06091050185E0689FB001112417C0BE
:100B500090918A019923D1F060910401961788F74A
:100B60002091050185E0289F90011124929FA0010A
:100B7000939F500D112470E0CA010E94501F6038ED
:100B8000710540F46115710519F406C065E070E067
:100B9000862F08958FE7089581E0089580918B0155
:100BA00080FF08C06091010170E0759567957595AB
:100BB000679521C081FF06C06091010170E07595C5
:100BC000679519C082FF04C06091010170E010C0F8
:100BD00090918901992399F0609100019617A0F7EF
:100BE00080910101899FC001112470E00E94501F73
:100BF0006038710540F46115710519F406C061E0B3
:100C000070E0862F08958FE7089581E008958D3E66
:100C100021F40E948505819504C08E3E29F40E942E
:100C2000850580938F0108958F3E21F40E948505EC
:100C3000819504C0803F29F40E94850580938E0130
:100C40000895893F19F40E94CE0505C08A3F31F40A
:100C50000E94CE0581958093900108958B3F21F4E9
:100C60000E94CE05819504C08C3F29F40E94CE05D8
:100C70008093910108959FE0980F983078F421E0D7
:100C800030E0A90102C0440F551F9A95E2F7CA014E
:100C900090918D01892B80938D0108958D3F21F4D2
:100CA00080918B0181600BC08E3F21F480918B017C
:100CB000826005C08F3F29F480918B01846080930E
:100CC0008B0108958D3E39F490918F0197FF35C0C7
:100CD00010928F0159C08E3E29F490918F01191600
:100CE000BCF32BC090918E018F3E29F497FF25C055
:100CF00010928E0149C0803F19F41916CCF31DC023
:100D000090919001893F29F41916BCF4109290013A
:100D10003BC08A3F19F497FF10C0F8CF8B3F39F4DE
:100D20009091910197FF09C0109291012DC08C3FC5
:100D300021F4909191011916BCF39FE0980F98301F
:100D400080F421E030E0A90102C0440F551F9A95BC
:100D5000E2F7CA01809590918D01892380938D01DE
:100D600013C08D3F21F480918B018E7F0BC08E3F8D
:100D700021F480918B018D7F05C08F3F29F48091F4
:100D80008B018B7F80938B0180918E01811106C036
:100D900080918F01811102C010928A01809190018F
:100DA000811106C080919101811102C010928901C8
:100DB00008950E941C1820918E01211104C02091D9
:100DC0008F01222321F09093880180938701209145
:100DD0009001211104C020919101222321F09093D0
:100DE0008601809385018CE891E00C94640AEF926F
:100DF000FF920F931F93CF93DF9300D000D000D0CA
:100E0000CDB7DEB786E0ECE8F1E0DE0111960190A7
:100E10000D928A95E1F7E0908E01F0908F0100919C
:100E200090011091910110928E0110928F011092F9
:100E3000900110929101E11003C0FF2009F45DC000
:100E400080918701909188010E943418AC019091A3
:100E50008A01992339F02091060130E024173507E3
:100E600058F04BC0209107018AE0289F900111247F
:100E70002417350718F041C09F3F19F09F5F9093EA
:100E80008A01EE2061F00E9485051E1414F09FEF88
:100E900001C091E0989F902D112490938E01FF2026
:100EA00061F00E9485051F1414F09FEF01C091E0CE
:100EB000989F902D112490938F0130918E013323B0
:100EC000E1F020918F012223C1F045EB3403C001F2
:100ED0001124992319F090938E0103C081E080932F
:100EE0008E0135EB2303C0011124992319F090934F
:100EF0008F0103C081E080938F01011103C0112392
:100F000009F45DC080918501909186010E9434189A
:100F1000AC0190918901992339F02091020130E0D0
:100F20002417350758F04BC0209103018AE0289F11
:100F3000900111242417350718F041C09F3F19F084
:100F40009F5F90938901002361F00E94CE051016E7
:100F500014F09FEF01C091E0989F902D1124909381
:100F60009001112361F00E94CE05111614F09FEF3D
:100F700001C091E0989F902D1124909391013091A0
:100F800090013323E1F0209191012223C1F045EB40
:100F90003403C0011124992319F09093900103C0E8
:100FA00081E08093900135EB2303C0011124992344
:100FB00019F09093910103C081E080939101809199
:100FC0008E0181110BC080918F01811107C080912A
:100FD0009001811103C08091910181110E94D90675
:100FE000EB82FC820D831E8386E0FE013196ACE825
:100FF000B1E001900D928A95E1F726960FB6F8942C
:10100000DEBF0FBECDBFDF91CF911F910F91FF903B
:10101000EF900895ECE8F1E086E0DF011D928A95FB
:10102000E9F710928A011092890110928B010895BC
:101030000F931F93CF93DF93C42FD22FFC01828194
:101040008823C9F0409394010E941C189093930147
:101050008093920180E28C0F883008F057C0C770EF
:1010600081E001C0880FCA95EAF7DF91CF911F9107
:101070000F910C94E70C80919401481330C080913B
:101080009201909193010E943418883C910538F5A3
:1010900010E21D0FCD17B9F080E28C0F883040F4BC
:1010A000C77081E001C0880FCA95EAF70E94EE0C74
:1010B000183028F581E09D2F977001C0880F9A9510
:1010C000EAF70E94E70C802F0E94DE0C1830F0F443
:1010D000D77081E001C0880FDA95EAF70AC080E294
:1010E0008C0F883098F4C77081E001C0880FCA95D2
:1010F000EAF7DF91CF911F910F910C94EE0C802FA6
:10110000DF91CF911F910F910C94DE0CDF91CF9165
:101110001F910F9108950F939C01CB01243F4CE543
:10112000340731F188F4293DFCE53F07D9F02A3D29
:101130004CE5340779F1283D3C45A9F506E221EE5E
:1011400041EE68ED7CE52BC0263FFCE53F07E1F072
:10115000A8F0273F3C4539F507E225EE46EE67EF5C
:101160007CE51DC007E225EE45EE69ED7CE517C084
:1011700006E221EE40EE64EF7CE511C007E225EEC9
:1011800044EE65EF7CE50BC006E221EE42EE66EF31
:101190007CE505C008E221E045EE6AED7CE50E94B1
:1011A000180880E008C0FC018281882319F01092A1
:1011B000940101C081E00F910895CF93DF93EC017A
:1011C000FB018281882309F41FC1C230FCE5DF07DF
:1011D00008F41BC1C6319CE5D90738F09E012B5F8E
:1011E0003C452930310508F010C10E943916909312
:1011F000370280933602C031ECE5DE0709F4C3C044
:1012000008F041C0C8308CE5D80709F49AC0F0F462
:10121000C430ECE5DE0709F487C068F4C2308CE521
:10122000D80709F477C0C330DC4509F0E3C08091EA
:101230003602826076C0C630ECE5DE0709F46EC087
:1012400008F07BC08091360288606BC0CC308CE5A2
:10125000D80709F485C068F4CA30ECE5DE0709F464
:1012600074C008F079C00E94740F809136028068C3
:1012700058C0CE308CE5D80709F476C008F07FC09E
:10128000809136028BC0CC3FECE5DE0709F44FC0FD
:1012900018F5C3318CE5D80709F47DC078F4C13165
:1012A000ECE5DE0709F473C0C231DC4509F0A2C0E9
:1012B0000E94740F809136028F7733C0C5318CE560
:1012C000D80709F472C008F486C0CB3FDC4509F0AA
:1012D00091C0809137023EC0C115FDE5DF0709F4DA
:1012E0005FC058F4CE3F9CE5D90709F444C008F428
:1012F0003FC08091370282602DC0C230FDE5DF071C
:1013000009F475C008F45DC0C330DD4509F072C052
:1013100080E06EC080913602816003C08091360209
:1013200080618093360266C08091360211C0809140
:1013300037028260809337025DC0809136028062FE
:10134000F0CF809136028064ECCF809136028860C5
:101350008460E7CF8160EECF809136028E7FE1CF4F
:10136000809136028D7FDDCF80913602877FD9CF85
:101370008091370218C0809137028D7FDBCF80913A
:1013800036028F7ECECF809136028F7DCACF80917C
:1013900036028F7BC6CF80913602877F8B7FC1CF8D
:1013A000809137028D7F8E7FC5CF8091360282FB80
:1013B000222720F991E0922790FB82F990FB83F994
:1013C000B0CF80913702982F909591708E7F892BA6
:1013D00090FB81F9AFCF0E94740F8091360287FB9A
:1013E000222720F991E0922790FB87F99ACF81E09C
:1013F0000E94D01680913602909137020E944A16C0
:101400000E94740F80E001C081E0DF91CF910895C8
:10141000CF93DF9386319C4541F5EB010E945F1528
:10142000982F8A812091080130910901882379F051
:101430009A7A81E009F480E080939501911102C0CD
:1014400069E201C065E3C9010E946B170AC080917F
:101450009501811102C069E201C065E3C9010E94E2
:1014600076170E94B11580E001C081E0DF91CF9135
:10147000089590939B0180939A010895E0919A01B9
:10148000F0919B01309721F00190F081E02D0994BB
:1014900080E00895E0919A01F0919B01309799F0D6
:1014A00020911401222359F02091360227FF07C012
:1014B000DC012C9111962C93119725E02C9302803E
:1014C000F381E02D09940895E0919A01F0919B0138
:1014D000309739F022E0DC012C930480F581E02D77
:1014E000099408952091980130919901281739079E
:1014F00071F09093990180939801E0919A01F09195
:101500009B01309721F00680F781E02D0994089522
:1015100020919601309197012817390771F0909327
:10152000970180939601E0919A01F0919B01309789
:1015300021F00084F185E02D099408950E94281877
:101540006093A3017093A4018093A5019093A601D9
:1015500060939F017093A0018093A1019093A201D9
:10156000089585B7806885BF85B7806885BF089571
:1015700081E008950C94B80A08950C94BC0A0C9468
:10158000BC0A0C94BF0A0C94BC0A0C94C30A0C94B9
:10159000BC0A0E94B10A8EE196E10E947A180E946C
:1015A000C70A0C94C50A0E94BD0A0C94BC0A0E948A
:1015B00013180E94C2040C94C10A9F92AF92BF926A
:1015C000CF92DF92EF92FF920F931F93CF93DF930F
:1015D000CDB7DEB72A970FB6F894DEBF0FBECDBFEA
:1015E0000E94FE0481110E949E0A8DE9A82E81E0CE
:1015F000B82E00E010E0902E802F0E94B204D82E6A
:10160000F501C1905F01C826B1F40F5F1F4F023092
:10161000110589F78FEF89838A831B820E941C182A
:101620008160782F9D838C8349815A816B818D8164
:101630000E947B0B2FC08091120281FD0E94B80492
:10164000E12CFF24F3948C2D8F21F1F00E94BA0A33
:10165000882399F0EE829F82DF2081E009F480E008
:1016600088870E941C188160782F9A8789874E810D
:101670005F8168858A850E947B0BF801E356FE4FE7
:101680008081F826F08206C0E394FF0CF4E0EF12AC
:10169000DACFBBCF0E94F7060E943E0A90919C01D0
:1016A0008917B9F00E943E0A80939C012A960FB6D2
:1016B000F894DEBF0FBECDBFDF91CF911F910F9188
:1016C000FF90EF90DF90CF90BF90AF909F900C94E1
:1016D0005F022A960FB6F894DEBF0FBECDBFDF9132
:1016E000CF911F910F91FF90EF90DF90CF90BF901F
:1016F000AF909F900895DF92EF92FF920F931F9308
:10170000CF93DF93CDB7DEB72B970FB6F894DEBF3C
:101710000FBECDBFF42E052F162FE72ED82E611148
:101720000E947F15FE01319686E0DF011D928A95A9
:10173000E9F77E2D4F2D502F612F8D2D9E810E9418
:101740002D122B960FB6F894DEBF0FBECDBFDF91E2
:10175000CF911F910F91FF90EF90DF900895FC01C2
:10176000808191810E94FF140895CF93882309F40A
:10177000A4C0C82F8238C1F40E943E0A81FD9DC0DA
:1017800069E380910801909109010E946B170E9402
:10179000B1152FEF81EE94E0215080409040E1F7A9
:1017A00000C0000069E319C0833801F50E943E0AB9
:1017B00080FD83C063E580910801909109010E943A
:1017C0006B170E94B1152FEF81EE94E021508040FD
:1017D0009040E1F700C0000063E58091080190911E
:1017E00009010E947617CF910C94B1158438C1F489
:1017F0000E943E0A82FD61C067E4809108019091D9
:1018000009010E946B170E94B1152FEF81EE94E041
:10181000215080409040E1F700C0000067E4DDCF38
:101820008CEF8C0F813AD0F46C2F8091080190914D
:1018300009010E94EB16882349F06C2F8091080162
:10184000909109010E9476170E94B1156C2F80912A
:101850000801909109010E946B17C5CF80E28C0F9F
:10186000883048F4C77081E001C0880FCA95EAF754
:101870000E946215B8CFEBE5EC0FE33040F4F0E0E6
:10188000E458FE4F808190E0CF910C94720AE8E515
:10189000EC0FE73150F4F0E0EE0FFF1FE25BFE4F7C
:1018A00080819181CF910C94880ACD3E30F08C2FAD
:1018B0000E940706CF910C94D906CF9108958823F2
:1018C00009F464C0823879F40E943E0A81FF5EC048
:1018D00069E380910801909109010E946B170E94B1
:1018E000B11569E310C08338B1F40E943E0A80FF4D
:1018F0004DC063E580910801909109010E946B172A
:101900000E94B11563E580910801909109010E9440
:1019100076170C94B115843879F40E943E0A82FF40
:1019200035C067E480910801909109010E946B170E
:101930000E94B11567E4E7CF9CEF980F913A10F43D
:10194000682FE1CF90E2980F983050F4877091E0C3
:1019500001C0990F8A95EAF7892F0E946815D9CF9F
:101960009BE5980F933020F480E090E00C94720A8D
:1019700098E5980F973120F480E090E00C94880A65
:101980008D3E20F00E9462060C94D90608951F93A4
:10199000CF93DF93182FEB010E94B50B209741F0F6
:1019A0008FE99FE00197F1F700C000002197F6CF83
:1019B000812FDF91CF911F910C945F0C893319F027
:1019C00060E070E002C060E570E00C94C70C882312
:1019D00021F00E9462150C94B1150895882321F01E
:1019E0000E9468150C94B1150895CF92DF92EF9282
:1019F000FF920F931F93CF93DF937C01062FC72F86
:101A0000FC01D281158112951F700E943715882321
:101A100099F0DD2389F08C2F807F803421F080E2E3
:101A2000800F883048F082E00E9401160E9437152E
:101A300091E0D82ED92601C0D12CCC2EC2948FE0B3
:101A4000C8228C2D90E0FC01EA5AFF4F0C94641FD1
:101A50008C2F807FCF70882311F0C295C07FDD234B
:101A600099F0CC2309F48DC180E2800F883010F00A
:101A7000011104C08C2F0E94621503C08C2F0E949C
:101A800072150E94B1157DC1802F0E945F0CCC237E
:101A900009F49CC180E2800F883010F0011104C06D
:101AA0008C2F0E94681503C08C2F0E9478150E940D
:101AB000B1158CC18C2F807FCF70803211F0C29510
:101AC000C07F002319F00130C9F022C0DD2371F07E
:101AD000112341F0113031F40E9492158C2B0E9499
:101AE0009A1574C10E9492158C2B1DC0112319F0F8
:101AF000113009F46BC10E94A71525C0DD2321F028
:101B0000163008F063C10EC0153008F05FC11BC06D
:101B1000DD2361F0112331F0F701858180FF31C1B0
:101B20008F7085838C2F0E94E70C50C1112359F0D0
:101B3000093309F037C1FFEF27EE83E0F150204071
:101B40008040E1F72DC18C2F0E94EE0C3FC18C2FFD
:101B500086958695837019F0813061F037C1DD2359
:101B600021F0802F9C2F937002C080E090E00E94B3
:101B7000720A34C1DD2321F0802F9C2F937002C0A4
:101B800080E090E00E94880A29C1802FDD2319F0AF
:101B90000E94070602C00E9462060E94D9061EC16A
:101BA0008C2F837009F045C0D11114C1402F42958C
:101BB00046954770440F440F602F6F70862F90E05A
:101BC000A0E0B0E0042E04C0880F991FAA1FBB1F1D
:101BD0000A94D2F704FF10C00FE010E020E030E0DC
:101BE00004C0000F111F221F331F4A95D2F7009522
:101BF00010952095309503C000E010E09801C6953F
:101C0000C695C370BC01CD01602B712B822B932B29
:101C1000C23049F058F4C13019F00E947E13DAC086
:101C20000E946C13D7C00E949013D4C00E946A1304
:101C3000D1C0DD2319F08C2F817001C086958823D7
:101C400009F4C8C0402F429546954770440F440F91
:101C5000602F6F70862F90E0A0E0B0E0042E04C0EB
:101C6000880F991FAA1FBB1F0A94D2F704FF10C048
:101C70000FE010E020E030E004C0000F111F221F31
:101C8000331F4A95D2F7009510952095309503C0E3
:101C900000E010E09801C695C695C370BC01CD0167
:101CA000602B712B822B932BC23049F058F4C1303A
:101CB00019F00E9443148EC00E9431148BC00E9400
:101CC000551488C00E94A41385C0CF70DD2339F05D
:101CD0008C2F0E94CA13802F0E94E70C7BC0802F9C
:101CE0000E94EE0C8C2F0E94EB1374C0023F01F196
:101CF00028F4003F41F0013FA1F03FC0033FF9F05D
:101D0000043F39F13AC0DD2341F0153008F05EC0E0
:101D10008C2F8F710E94101459C0163008F056C0D5
:101D2000F7CFDD2339F08C2F8F710E94CA134EC07C
:101D3000DD23C9F38C2F8F710E94EB1347C0DD2385
:101D400029F08C2F8F710E94B51340C00E94B013F0
:101D50003DC0DD2349F0CF718C2F0E94CA1363E090
:101D60008C2F0E94E61532C081E00E9401161230CD
:101D700068F182E00E94011629C0DD2331F01123B1
:101D800091F2802F0E94B50B21C0112399F20933E3
:101D900049F49FEFE7EEF3E09150E040F040E1F7C7
:101DA00000C00000802F0E945F0C10C04C2F4F70AD
:101DB000602FC7010E9468020E94DB120FC04C2FE7
:101DC0004F70602FC7010E946B0208C088EF8C0D16
:101DD000843020F40E943E0A0E945F02DD20C9F098
:101DE0000E94331580FD15C0F70112820E942D1547
:101DF0000E94CA13C7010E942A0F0E942D15DF916D
:101E0000CF911F910F91FF90EF90DF90CF900C94A6
:101E1000EB13DF91CF911F910F91FF90EF90DF9027
:101E2000CF9008950F931F93CF93DF93EC016881B8
:101E300079818A810E940A158C010E9467140E9490
:101E40005813B801CE010E94F50CDF91CF911F917C
:101E50000F910895CF93DF93EC01988189812B81B5
:101E60003C81232B31F08F3F31F481E09F3F19F407
:101E700003C081E001C080E080FD19C0CE010E9456
:101E8000060281110CC00E943715882381F08A81D7
:101E9000882369F082E0DF91CF910C940116CE0186
:101EA0000E94120FCE01DF91CF910C94E501DF91DA
:101EB000CF91089580E090E00E94720A80E090E067
:101EC0000E94880A0E947F150E948F150E94B115FA
:101ED0000E940A080C94D90680910801909109018A
:101EE0000E9481170C945A0F0E946F150C946C0F6E
:101EF000E92FE295EF704E2F50E0FA013297EE3065
:101F0000F105B0F4EA59FF4F0C94641F803F91F043
:101F100018F4883E68F40EC0843F51F40BC0883E2C
:101F200048F0813F29F406C093FB882780F9089583
:101F300080E0089581E008950E94FF140E94780FC8
:101F40000895CF93DF9300D000D01F92CDB7DEB7B6
:101F50000F900F900F900F900F90DF91CF910895F9
:101F6000CF93DF9300D000D000D0CDB7DEB7269658
:101F70000FB6F894DEBF0FBECDBFDF91CF910895AD
:101F80001F93CF93DF93C091A80116E08091A90120
:101F9000C81799F0D0E01C9FF0011D9FF00D11248F
:101FA000E655FE4F40815181628173818481958124
:101FB0000E94B00F2196C770E9CFDF91CF911F919A
:101FC00008954091DA015091DB016091DC0170913C
:101FD000DD018091DE019091DF010C94B00F0F9331
:101FE0001F93CF93DF938091DF0182958F7009F06B
:101FF0005DC08091DC01882309F458C08091A8015C
:102000001091A9016091DA017091DB01C091DD01AD
:10201000D091DE0191E06F3F09F090E0292F06E0BA
:10202000811709F443C0209721F07F3F21F030E071
:1020300003C031E001C0322F90E030FD34C0089F72
:10204000F001099FF00D1124DF01A655BE4F119636
:102050003C911197371327C03C91361324C0129638
:102060003C91129731111FC013964D915C911497BA
:102070004C1B5D0B483C5105B0F48091DF018F7023
:1020800080618093DF01E155FE4F80818F70806118
:1020900080838AED91E00E942A0FDF91CF911F91FA
:1020A0000F910C94C00F01968770BACFDF91CF913A
:1020B0001F910F9108959F92AF92BF92CF92DF929E
:1020C000EF92FF920F931F93CF93DF93CDB7DEB7BD
:1020D00061970FB6F894DEBF0FBECDBF8C0185E0CF
:1020E000F801DE011D9601900D928A95E1F7F80145
:1020F00040815181E2809091DA016091DB01209171
:10210000DD013091DE012115310531F06F3F31F4F1
:1021100081E09F3F19F403C081E001C080E0F82F07
:10212000F1709F2E80FD46C1F801A380B4808AED36
:10213000C82E81E0D82EF090DC01F501E21BF30BF4
:10214000FF2009F4DFC08091DF01E83CF10508F0D1
:102150009BC0282F207F09F052C0561313C049138B
:1021600011C0FE2CE1100EC08F7080618093DF01E2
:102170000E94E10FC6010E942A0F8091DF01F80141
:10218000858358C1AB2831F05F3F31F481E04F3F88
:1021900019F403C081E001C080E080FD03C081E04C
:1021A0008E2502C080E090E0F82FF170FF2E80FFB6
:1021B0001CC08091A8012091A90136E0821709F482
:1021C00017C190E0389FF001399FF00D1124E655BA
:1021D000FE4F6181561306C06081461303C06281C1
:1021E000E61203C001968770E9CFFE2CEE2009F4B9
:1021F00021C18091DF0181608093DF015AC05613B5
:1022000006C0491304C0E11002C0F8019FC04D8709
:102210005E878D859E850E949C0F882379F1EE2034
:1022200069F12091DF01822F82958F7090E00297F3
:1022300074F08091DA019091DB0198878F83198681
:10224000BB86AA862C87CE0107960E942A0F86E0BD
:10225000F801AAEDB1E001900D928A95E1F70E9494
:10226000EF0F0E94E10F0DC0561729F14D875E87D1
:102270008D859E850E949C0F81112CC0C8010E94F3
:102280002A0FFF24F394D6C0282F207F69F77A2DD8
:10229000B98AA88A6E2D89890E94A10F8AED91E0E2
:1022A0000E942A0F86E0F60111928A95E9F70E94B2
:1022B000E10FF12CBFC04913D9CFE110D7CFF801FE
:1022C0008583C8010E942A0F86E0F60111928A9543
:1022D000E9F7B0C0EE2091F22091DF01822F8295C4
:1022E0008F7090E002970CF4B2CF8091DA01909158
:1022F000DB019A8389831B82BD82AC822E83CE014F
:102300000196A3CFE83CF10508F047C0FE2CEE2073
:1023100009F4B4CF561330C049132EC02091DF0109
:1023200020FD21C0822F82958F70482F50E04115EB
:102330005105C9F0F80125834F30510541F08F5FF9
:10234000982F9295907F822F8F70892B8583C8015B
:102350000E942A0F86E0F801AAEDB1E001900D92EB
:102360008A95E1F742C086E0F801AAEDB1E001905C
:102370000D928A95E1F75EC04D875E878D859E85BB
:102380000E949C0F811163CF8091DF018160809357
:10239000DF01C8010E942A0F4DC07A2DB98AA88A90
:1023A0006E2D89890E94A10F86E0F60111928A950F
:1023B000E9F71BC0EE2009F461CF4D875E878D855C
:1023C0009E850E949C0FF82E882309F457CF86E043
:1023D000F801AAEDB1E001900D928A95E1F78AED3E
:1023E00091E00E94AF0B0E94EF0F0E94E10F22C00C
:1023F0004D875E878D859E850E94FF14292F22952B
:102400002F70223028F49F7039F0811105C00BC065
:10241000243028F49F7049F4805E883020F0C80191
:102420000E942A0F9F2CF92C05C0F8019581907FFE
:1024300099F7F9CF8F2D61960FB6F894DEBF0FBED6
:10244000CDBFDF91CF911F910F91FF90EF90DF9063
:10245000CF90BF90AF909F9008951F93CF93DF933D
:10246000CDB7DEB72C970FB6F894DEBF0FBECDBF49
:102470004F83588769877A878B879C87CE01079619
:102480000E945B108823D1F09F8188852A853B8537
:10249000232B31F08F3F31F481E09F3F19F403C0CB
:1024A00081E001C080E080FD47C04F81588569858B
:1024B0007A858B859C850E94B00F3EC086E0FE0128
:1024C0003796DE01119601900D928A95E1F7FF8112
:1024D000E8856A857B856115710531F0EF3F31F440
:1024E00081E0FF3F19F403C081E001C080E080FD7E
:1024F00023C02091A90130E0C90101968770992776
:102500004091A80150E084179507F1F1F983EA831F
:102510007D836C8396E0929FD001939FB00D112430
:10252000A655BE4FFE01319601900D929A95E1F7A6
:102530008093A9010E94C00F16E08091A80190919C
:10254000A901891771F1189FC001112486559E4F6A
:102550000E945B10882329F1E091A8011E9FF001E1
:102560001124E655FE4F408151816281738184813F
:1025700095810E94B00F8091A80190E0019687702C
:1025800099278093A801D9CF0E94740F1092A901B6
:102590001092A801EAEDF1E086E0DF011D928A9534
:1025A000E9F72C960FB6F894DEBF0FBECDBFDF91D2
:1025B000CF911F910895EF92FF920F931F93CF93A6
:1025C000DF938C01892B09F46CC0F12CEE24E39489
:1025D000E8012196F8018491843740F4843008F0B2
:1025E00051C0813081F0823019F15BC0853709F428
:1025F00044C0A8F19CE7980F903708F052C08F773D
:102600000E945F0C41C00E5F1F4FFE01849190E25B
:10261000980F983050F48770FE2D01C0FF0F8A95F7
:10262000EAF78F2F0E94821514C00E94B50B2DC0AF
:102630000E5F1F4FFE01849190E2980F983060F476
:102640008770FE2D01C0FF0F8A95EAF78F2F0E9439
:1026500088150E94B11519C00E945F0C16C00E5F4C
:102660001F4FFE01C491CC2381F08FE99FE00197B9
:10267000F1F700C00000C150F6CF0E5F1F4FFE0102
:10268000F49003C00E94B50B8E018F2D882309F4AE
:102690009FCFEFE9FFE03197F1F700C000008150D4
:1026A000F5CFDF91CF911F910F91FF90EF9008959B
:1026B000089508950C9459130C945A130E945C13B6
:1026C0006093E9017093EA018093EB019093EC0130
:1026D0000C945A0F0C945E130F931F930091E90111
:1026E0001091EA012091EB013091EC01602B712BEC
:1026F000822B932B1F910F910C945E130F931F93BA
:102700000091E9011091EA012091EB013091EC0177
:1027100060237123822393231F910F910C945E13E6
:102720000F931F930091E9011091EA012091EB01B1
:102730003091EC0160277127822793271F910F9119
:102740000C945E130C9459130E94A2136093E5013C
:102750007093E6018093E7019093E8010C945A0F7F
:1027600060E070E0CB010C94A4130F931F9341E041
:1027700050E060E070E08A019B0104C0000F111F6F
:10278000221F331F8A95D2F7C901B8011F910F91FB
:102790000C94A4130F931F9341E050E060E070E0AD
:1027A00004C0440F551F661F771F8A95D2F780918A
:1027B000E5019091E601A091E701B091E8018A015D
:1027C0009B01082B192B2A2B3B2BC901B8011F9108
:1027D0000F910C94A4130F931F9341E050E060E01D
:1027E00070E004C0440F551F661F771F8A95D2F70B
:1027F00040955095609570958091E5019091E60126
:10280000A091E701B091E8018A019B0108231923F7
:102810002A233B23C901B8011F910F910C94A413E3
:102820000F931F9341E050E060E070E004C0440F5C
:10283000551F661F771F8A95D2F78091E501909109
:10284000E601A091E701B091E8018A019B01082708
:1028500019272A273B27C901B8011F910F910C9412
:10286000A4130F931F930091E5011091E6012091AD
:10287000E7013091E801602B712B822B932B1F9184
:102880000F910C94A4130F931F930091E5011091E5
:10289000E6012091E7013091E80160237123822352
:1028A00093231F910F910C94A4130F931F930091E6
:1028B000E5011091E6012091E7013091E8016027E0
:1028C0007127822793271F910F910C94A4130895C9
:1028D000990F990F890FE82FE695E695E695877091
:1028E00051E001C0550F8A95EAF785E0E89FF001B5
:1028F0001124E052FE4F20E030E070E04081CB0137
:10290000022E02C0969587950A94E2F78170819510
:1029100084278523842781932F5F3F4F25303105FE
:1029200069F70895990F990F890F682F6695669535
:102930006695982F977085E0689FB001112440E05C
:1029400050E080E0FB01E40FF51FE052FE4F2081D4
:1029500030E0092E02C0369527950A94E2F72170DF
:102960003327042E01C0220F0A94EAF7822B4F5F0F
:102970005F4F4530510531F70895BF92CF92DF92F6
:10298000EF92FF920F931F93CF93DF938C01C09030
:10299000E501D090E601E090E701F090E801809138
:1029A000E9019091EA01A091EB01B091EC01C82AF4
:1029B000D92AEA2AFB2ACFE1D0E0D701C6010C2EA2
:1029C00004C0B695A795979587950A94D2F780FD90
:1029D00004C0219790F7B12C07C0BC2EB8018C2FF2
:1029E0000E9487020197A9F38B2DDF91CF911F9150
:1029F0000F91FF90EF90DF90CF90BF900895CF930D
:102A0000DF93EC010E94BD14BE010E948702DF919A
:102A1000CF9108951F93CF93DF93EB019091A7017E
:102A2000992321F0CB010E94FF1413C0882349F0A1
:102A3000CB010E94BD14182F682FCE010E9468148C
:102A400004C0CB010E949214182FBE01812F0E9456
:102A50008702DF91CF911F9108958091ED018595B7
:102A60008595859508958091ED01877008959091E1
:102A7000ED01977081E009F480E0089590913702AC
:102A800092FB222720F9281751F080FB92F99093AE
:102A9000370280913602909137020C944A160895BD
:102AA0008091370282FB882780F991E089270C9476
:102AB0003E1581E00C943E1580E00C943E1580910B
:102AC0001102089590911102892B809311020895AB
:102AD000809590911102892380931102089510929C
:102AE0001102089590911002892B8093100208958D
:102AF000809590911002892380931002089510927E
:102B00001002089590910F02892B80930F0208956F
:102B1000809590910F02892380930F02089510925F
:102B20000F0208958091EE01089508950C94951573
:102B30000C9496159091370292FD08C09091EE0189
:102B4000981721F08093EE010C94981508958091C8
:102B5000EE01882329F01092EE0180E00C94981584
:102B60000895E0910801F09109018091110280839C
:102B7000E0910801F0910901908180911002892B68
:102B80008083E0910801F0910901908180910F020A
:102B9000892B80838091EE01882381F0E0910801E8
:102BA000F09109019081892B808380910801909197
:102BB00009010E94D51681110E94A7158091080174
:102BC000909109010C944A0A0C9495159091370242
:102BD00092FD10C098E0899F90011124262B20932C
:102BE000ED010E94CA138091ED018595859585952B
:102BF0000C94E4150C94CA131092ED0180E00C942F
:102C0000E4152091ED01809582238093ED01982FAA
:102C1000977041F430E0482F082E000C550B241714
:102C2000350721F49091370292FF07C0859585956D
:102C300085950E94EB130C94FC15089580E008958F
:102C40006FEF7FEF80E090E00C94AA1F80E090E0AF
:102C50000E94861F21E08A3E9E4F09F020E0822FCD
:102C6000089582E090E00C947E1F83E090E00C9445
:102C70007E1FCF9384E090E00E947E1FC82F82E2E7
:102C800090E00E947E1F2C2F30E0A901582BCA0132
:102C9000CF910895CF93C92F682F84E090E00E94D0
:102CA0008C1F6C2F82E290E0CF910C948C1FAB01B3
:102CB000BC018FE090E00C949E1FAB01BC0183E14E
:102CC00090E00C949E1F60E070E0CB010C945D16C8
:102CD00060E070E0CB010E9457160C9463166AEE18
:102CE0007EEF80E090E00E94AA1F60E082E090E02A
:102CF0000E948C1F60E083E090E00E948C1F109285
:102D0000E9011092EA011092EB011092EC0160E0EF
:102D100084E090E00E948C1F60E082E290E00E94DC
:102D20008C1F60E085E090E00E948C1F60E086E0F0
:102D300090E00E948C1F6FEF87E090E00E948C1F54
:102D400040E050E0BA0188E090E00E949E1F60E001
:102D50008DE090E00E948C1F40E050E0BA0188E1D5
:102D600090E00E949E1F60E087E190E00E948C1F2F
:102D700040E050E0BA018CE190E00E949E1F60E0CC
:102D800070E080E290E00E94AA1F40E050E0BA01AB
:102D900088E190E00E949E1F0C9468160C946F16B8
:102DA000682F8EE090E00C948C1FFC01329680918D
:102DB0001401882331F08091360287FF02C09EE122
:102DC00001C096E080E0915028F021912223D9F3B0
:102DD0008F5FF9CF0895662351F1209114012223CA
:102DE000E9F02091360227FF19C0462F46954695F7
:102DF00046954E31E0F4677021E030E002C0220FCA
:102E0000331F6A95E2F7FC01E40FF11D828190E027
:102E10002823392381E0232B69F409C0FC01329671
:102E200008962191621729F0E817F907D1F780E099
:102E3000089581E008959C01FC0132969FEF80E0A7
:102E40004191461789F09F3F19F4411101C0982F15
:102E50008F5F8630A9F79F3F39F0F901E90FF11D27
:102E600097FDFA956283089508959C012A5F3F4F6C
:102E7000FC014281461301C012820196821793071A
:102E8000B9F70895262F2695269526952E3168F4B4
:102E9000FC01E20FF11D677021E030E001C0220F5C
:102EA0006A95EAF78281282B22830895262F26959A
:102EB000269526952E3170F4FC01E20FF11D677006
:102EC00021E030E001C0220F6A95EAF72095828167
:102ED00028232283089520911401222329F0209190
:102EE000360227FD0C9442170C941B1720911401F5
:102EF000222329F02091360227FD0C9456170C94BA
:102F0000351720911401FC013296222331F0809173
:102F1000360287FF02C08EE101C086E0DF011D920C
:102F20008A95E9F7089508950C9493170C949317D4
:102F30000E9496170E94FE040E94941780E00E944F
:102F4000B204811108C081E00E94B20491E08111B5
:102F500003C090E001C091E0892F08950C9493176D
:102F60000C94AE1780914402843049F10E94B0174E
:102F700080E00E945F021092130220E488E190E05A
:102F80000FB6F894A895809360000FBE2093600060
:102F900083B7817F846083BF83B7816083BF789468
:102FA000889583B78E7F83BF0FB6F894A8958091DC
:102FB0006000886180936000109260000FBE0895E9
:102FC0000C9493170E94740F0E943E0A0E945F02A5
:102FD0000C94E0171F920F920FB60F9211248F934B
:102FE0009F93AF93BF9380911302811113C080917F
:102FF0003C0290913D02A0913E02B0913F02419669
:10300000A11DB11D80933C0290933D02A0933E020E
:10301000B0933F02BF91AF919F918F910F900FBEE0
:103020000F901F90189582E084BD93E095BD9AEFB4
:1030300097BD80936E0008952FB7F89480913C025D
:1030400090913D02A0913E02B0913F022FBF0895A2
:103050002FB7F89460913C0270913D0280913E023E
:1030600090913F022FBF08959C014FB7F894809133
:103070003C0290913D02A0913E02B0913F024FBFB1
:10308000821B930B089578941F920F920FB60F92A4
:1030900011248F939F93AF93BF9380913C029091A3
:1030A0003D02A0913E02B0913F020196A11DB11DCB
:1030B00080933C0290933D02A0933E02B0933F0266
:1030C000BF91AF919F918F910F900FBE0F901F9066
:1030D000189587E797E790930108809300089AE096
:1030E00088E10FB6F894A895809360000FBE909386
:1030F0006000FFCF909381018093800108958091BB
:1031000034020895CF93DF9300D01F92CDB7DEB77E
:1031100090914402943019F589837B836A8382E01D
:103120008093E9008FEF9091E800815095FD06C0F3
:1031300095ED9A95F1F700008111F5CF8091E800A7
:1031400085FF0DC040E050E063E070E0CE010196E5
:103150000E94B21A8091E8008E778093E8000F9069
:103160000F900F90DF91CF910895BC0184E00C94F3
:103170008218BC0183E00C94821822E02093E900BD
:103180002FEF3091E800215035FD06C035ED3A951E
:10319000F1F700002111F5CF2091E80025FF0BC0C9
:1031A00040E050E066E070E00E94B21A8091E800D2
:1031B0008E778093E8000895CF93DF9320911401D8
:1031C000222339F02091360227FF03C060E222E07B
:1031D00002C068E021E02093E9002FEF3091E80081
:1031E000215035FD06C035ED3A95F1F7000021116B
:1031F000F5CF2091E80025FF1DC0EC01809114015E
:10320000811105C040E050E068E070E003C070E06C
:1032100040E050E0CE010E94B21A8091E8008E7723
:103220008093E80080E2FE01A4E1B2E001900D92FB
:103230008A95E1F7DF91CF91089580914302811142
:1032400009C00E94431C0E94A01C8091E20084607F
:103250008093E2000895109243020895089508951E
:10326000089542E061EC81E00E94BC1B42E261EC07
:1032700082E00C94BC1B80914602833009F460C04C
:1032800030F4813071F0823009F499C008958A30A9
:1032900009F485C08B3009F46BC0893009F0A7C0F0
:1032A00020C080914502813A09F0A1C08091E800D8
:1032B000877F8093E8008091490290914A02892B90
:1032C00021F460E284E192E003C060E080E090E0FD
:1032D00070E00E94FD1A8091E8008B778093E800EF
:1032E000089580914502813209F081C080914902A0
:1032F00090914A02029708F07AC08091E800877F97
:103300008093E8008091E80082FD05C0809144022E
:103310008111F8CF6CC02091F3008091F20090E011
:10332000922B029729F48091F1008B7F813021F458
:103330008091F100809334028091E8008B7753C034
:1033400080914502813A09F052C0809149029091E2
:103350004A02892B09F04BC08091E800877F809357
:10336000E8008091E80080FFFCCF8091140136C016
:10337000809145028132D9F58091490290914A02AB
:10338000892BA9F58091E800877F8093E8000E944F
:10339000F11B80914702809314010C94740F80916B
:1033A0004502813221F58091E800877F8093E80013
:1033B0000E94F11B8091480280933502089580910C
:1033C0004502813AA1F48091E800877F8093E8006C
:1033D0008091E80080FFFCCF809135028093F1005E
:1033E0008091E8008E778093E8000C94F11B08959B
:1033F00084B7877F84BF0FB6F894A895809160004A
:10340000886180936000109260000FBE90E080E8B9
:103410000FB6F89480936100909361000FBE0E94F4
:10342000C90A0E94431C0E94A01C8091E200846093
:103430008093E20078940E94351F0E94D70A8AE0A8
:1034400091E00E94390A809144028530A9F480916C
:103450004402853079F40E94B21780914202882399
:10346000B1F30E949817882391F30E949C1A0E943E
:10347000740FEDCF0E94E2170E94DD0A0E94D30A6A
:10348000E2CF0C94431A292F332723303105C9F09A
:1034900060F42130310581F02230310509F044C05B
:1034A0008BE390E02AE631E043C021323105E1F0C0
:1034B0002232310549F138C082E190E025EA31E05D
:1034C00037C099278130910549F028F0029761F5BE
:1034D000ECE2F1E005C0E6E6F1E002C0E0E5F1E093
:1034E000849190E09F0124C06115710541F0613025
:1034F0007105D1F489E090E025E931E019C089E057
:1035000090E02CE731E014C06115710541F06130A5
:10351000710551F486EB90E027EB31E009C080E4BF
:1035200090E02DE632E004C080E090E020E030E062
:10353000FA0131832083089580E189BD82E189BD4C
:1035400009B400FEFDCF8091D8008F7D8093D80014
:103550008091E00082608093E0008091E00081FD36
:10356000FCCF0895CF92DF92EF92FF920F931F93BB
:10357000CF93DF93EC018B017A010E94101C811123
:1035800033C0E114F10439F0F70180819181081B07
:10359000190BC80FD91FC12CD12C0115110519F118
:1035A0008091E80085FD16C08091E8008E778093B9
:1035B000E800E114F10449F0F70180819181C80E1F
:1035C000D91ED182C08285E00FC00E94101C8823C2
:1035D00021F30AC089918093F10001501109FFEF96
:1035E000CF1ADF0ADACF80E0DF91CF911F910F91E0
:1035F000FF90EF90DF90CF90089520914B02309193
:103600004C022617370748F06115710539F42091EF
:10361000E8002E772093E80001C0B901FC0120E00A
:103620006115710579F1809144028823F1F18530AB
:10363000F1F18091E80083FD3CC08091E80082FDBB
:103640002EC08091E80080FFEBCF2091F3008091A5
:10365000F20090E0922B6115710551F088309105D0
:1036600038F421912093F100615071090196F3CF54
:1036700021E0089709F020E08091E8008E778093A0
:10368000E800CECF2111CFCF0AC080914402882319
:1036900061F0853061F08091E80083FD0AC080917F
:1036A000E80082FFF2CF80E0089582E0089583E091
:1036B000089581E0089520914B0230914C02261725
:1036C000370748F06115710539F42091E8002E772D
:1036D0002093E80001C0B901FC0120E061157105EB
:1036E00091F180914402882309F440C0853009F4A7
:1036F0003FC08091E80083FD3DC08091E80082FDDD
:103700002FC08091E80080FFE9CF2091F3008091E5
:10371000F20090E0922B6115710559F08830910507
:1037200040F424912093F100319661507109019683
:10373000F2CF21E0089709F020E08091E8008E7731
:103740008093E800CBCF2111CCCF0AC080914402F6
:10375000882361F0853061F08091E80083FD0AC024
:103760008091E80082FFF2CF80E0089582E0089522
:1037700083E0089581E00895982F973068F590933D
:10378000E900981739F07091EC002091ED0050910C
:10379000F00003C0242F762F50E021FD02C09F5F70
:1037A000ECCF3091EB003E7F3093EB003091ED0099
:1037B0003D7F3093ED003091EB0031603093EB00B2
:1037C0007093EC002093ED005093F0002091EE00F8
:1037D00027FDE5CF80E008958F708093E90081E0B8
:1037E00008958091450287FF11C08091E80082FD15
:1037F00005C0809144028111F8CF11C08091E8008A
:103800008B770BC080914402882349F08091E800B7
:1038100080FFF8CF8091E8008E778093E8000895CC
:103820002091E4003091E50095E64091EC00842F72
:10383000817040FF23C08091E80080FD1DC0809111
:103840004402882399F0853099F08091EB0085FD42
:1038500011C04091E4005091E5002417350729F389
:10386000915011F09A01E1CF84E0089582E008952B
:1038700083E0089581E0089580E008954091E80094
:1038800042FFDDCF08950E94B11C0E94B91CE0EEFA
:10389000F0E0808181608083E8EDF0E080818F77C7
:1038A000808319BCA7EDB0E08C918E7F8C938081D2
:1038B0008F7E80831092430208950F931F93CF93BE
:1038C000DF930E94B11C0E94B91CC8EDD0E0888132
:1038D0008F77888388818068888388818F7D8883BB
:1038E00019BC1092440210924002109242021092AF
:1038F000410200EE10E0F80180818B7F8083888197
:103900008160888342E060E080E00E94BC1BE1EEC1
:10391000F0E080818E7F8083E2EEF0E08081816044
:103920008083808188608083F80180818E7F80839E
:10393000888180618883DF91CF911F910F910895D5
:10394000E8EDF0E080818F7E8083E7EDF0E080811C
:103950008160808384E082BF81E0809343020C9485
:103960005D1CE8EDF0E080818E7F80831092E200A4
:1039700008951092DA001092E10008951F920F92BC
:103980000FB60F9211242F933F934F935F936F9332
:103990007F938F939F93AF93BF93EF93FF93809108
:1039A000E10082FF0BC08091E20082FF07C080919E
:1039B000E1008B7F8093E1000E94341F8091DA0048
:1039C00080FF1FC08091D80080FF1BC08091DA006B
:1039D0008E7F8093DA008091D90080FF0DC080E156
:1039E00089BD82E189BD09B400FEFDCF81E08093ED
:1039F00044020E941D1905C019BC109244020E9485
:103A00002B198091E10080FF19C08091E20080FFB6
:103A100015C08091E2008E7F8093E2008091E200E9
:103A200080618093E2008091D80080628093D8000A
:103A300019BC85E0809344020E942F198091E10017
:103A400084FF30C08091E20084FF2CC080E189BDFA
:103A500082E189BD09B400FEFDCF8091D8008F7D41
:103A60008093D8008091E1008F7E8093E100809167
:103A7000E2008F7E8093E2008091E200816080937B
:103A8000E20080914002882311F084E007C0809119
:103A9000E30087FD02C081E001C083E0809344021F
:103AA0000E9430198091E10083FF29C08091E200DB
:103AB00083FF25C08091E100877F8093E10082E051
:103AC00080934402109240028091E1008E7F8093A7
:103AD000E1008091E2008E7F8093E2008091E2001D
:103AE00080618093E20042E060E080E00E94BC1BC5
:103AF0008091F00088608093F0000E942E19FF9161
:103B0000EF91BF91AF919F918F917F916F915F9155
:103B10004F913F912F910F900FBE0F901F901895CE
:103B20001F920F920FB60F9211242F933F934F9332
:103B30005F936F937F938F939F93AF93BF93CF9335
:103B4000DF93EF93FF93C091E900CF708091EC0079
:103B5000D82FD17080FDD0E81092E9008091F0005C
:103B6000877F8093F00078940E94D41D1092E90022
:103B70008091F00088608093F000CD2BCF70C093CF
:103B8000E900FF91EF91DF91CF91BF91AF919F91AC
:103B90008F917F916F915F914F913F912F910F90F6
:103BA0000FBE0F901F9018951F93CF93DF93CDB743
:103BB000DEB7AA970FB6F894DEBF0FBECDBFE5E41F
:103BC000F2E08091F100819322E0ED34F207C9F731
:103BD0000E943B198091E80083FF2EC1809145022D
:103BE00090914602492F50E04A30510508F024C117
:103BF000FA01EC58FF4F0C94641F803821F0823892
:103C000009F01AC108C080914102909142029923A3
:103C100089F082600FC0809149028F70873008F070
:103C20000BC18093E9008091EB0085FB882780F928
:103C30001092E9009091E800977F9093E8008093BC
:103C4000F1001092F100D1C0282F2D7F09F0F4C0AF
:103C5000882319F0823061F0EFC0809147028130F3
:103C600009F0EAC0933009F080E0809342022EC050
:103C70008091470281112AC0809149028F702FEFF5
:103C8000280F263008F0D8C08093E9002091EB007F
:103C900020FF1CC0933021F48091EB00806214C09F
:103CA0009091EB0090619093EB0021E030E0A9014E
:103CB00002C0440F551F8A95E2F74093EA00109224
:103CC000EA008091EB0088608093EB001092E9009D
:103CD0008091E800877F8093E8000E94F11BACC0D0
:103CE0008111AAC0109147021F778091E30080786C
:103CF000812B8093E3008091E800877F8093E80028
:103D00000E94F11B8091E80080FFFCCF8091E300CE
:103D100080688093E300111102C082E001C083E05B
:103D20008093440289C08058823008F085C0809119
:103D30004702909148028C3D53E0950779F583E066
:103D40008A838AE289834FB7F894DE01139620E0D4
:103D50003EE051E2E32FF0E050935700E49120FF62
:103D600003C0E295EF703F5FEF708E2F90E0EA3076
:103D700010F0C79601C0C0968D939D932F5F24319C
:103D800049F74FBF8091E800877F8093E8006AE29F
:103D900070E0CE0101960E94FD1A16C060914902A2
:103DA00070914A02AE014F5F5F4F0E94411ABC0101
:103DB000892B09F441C09091E800977F9093E80027
:103DC00089819A810E945B1B8091E8008B778093A8
:103DD000E80032C0803881F58091E800877F8093C9
:103DE000E800809140028093F1008091E8008E7796
:103DF00072CF811121C0809147029091480299278A
:103E00000297D4F48091E800877F8093E800809146
:103E10004702809340020E94F11B80914002811171
:103E200006C08091E30087FD02C081E001C084E00C
:103E3000809344020E9431198091E80083FF0AC0F8
:103E40008091E800877F8093E8008091EB0080629A
:103E50008093EB00AA960FB6F894DEBF0FBECDBFDD
:103E6000DF91CF911F9108950895CF9380914402DF
:103E70008823A1F0C091E900CF709091EC00892FC8
:103E8000817090FD80E8C82B1092E9008091E800D5
:103E900083FD0E94D41DCF70C093E900CF91089597
:103EA00097FB072E16F4009407D077FD09D00E94E7
:103EB0006A1F07FC05D03EF4909581959F4F0895A9
:103EC000709561957F4F0895EE0FFF1F0590F49157
:103ED000E02D0994AA1BBB1B51E107C0AA1FBB1F01
:103EE000A617B70710F0A61BB70B881F991F5A9586
:103EF000A9F780959095BC01CD010895F999FECF61
:103F000092BD81BDF89A992780B50895A8E1B0E0E7
:103F100042E050E00C94B21F262FF999FECF92BDDB
:103F200081BDF89A019700B4021639F01FBA20BD7E
:103F30000FB6F894FA9AF99A0FBE08950396272FB0
:103F40000E948D1F0E948C1F252F0E948D1F242FE1
:103F50000C948D1F0196272F0E948D1F0C948C1F8F
:103F6000DC01CB01FC01F999FECF06C0F2BDE1BD39
:103F7000F89A319600B40D9241505040B8F7089528
:043F8000F894FFCFE3
:103F84002808641E140A321EEF017F18DC18BD18BD
:103F9400B918B51801E200E900EA00B500B600B7A7
:103FA40000CD008301CC008A0192019401210223F7
:103FB4000224022502260227022A02B300B4006F5B
:103FC4000070008182833597669134C69490E20034
:103FD400E900EA00B500B600B700CD008301CC00CB
:103FE4008A0192019401210223022402250226025D
:103FF40027022A02B300B4006F007000818283009C
:00000001FF
